:020000040800F2
:100000000050002051070008950600089B060008D4
:10001000A1060008A7060008AD06000800000000C1
:10002000000000000000000000000000D1280008CF
:10003000B306000800000000612B0008A92B00088F
:100040009907000899070008990700089907000810
:100050009907000899070008990700089907000800
:1000600099070008990700089907000899070008F0
:1000700099070008990700089907000899070008E0
:1000800099070008990700089907000899070008D0
:1000900099070008990700089907000899070008C0
:1000A00099070008990700089907000899070008B0
:1000B000C106000899070008990700089907000879
:1000C0009907000899070008990700089907000890
:1000D00099070008990700087D350008990700086E
:1000E000D5060008990700089907000800000000DD
:1000F0000000000000000000000000000000000000
:0C01000000000000000000005FF808F1A3
:1001100010B5054C237833B9044B13B10448AFF341
:1001200000800123237010BD1C000020000000008F
:100130001C58000808B5034B1BB103490348AFF333
:10014000008008BD00000000200000201C580008AE
:10015000F0B400EB4003DFF8800000EBC30000F1D7
:1001600018063069F768756887422ED3B368DC1BC0
:10017000631E934212D37D19D01900BF11F8013BC1
:1001800005F8013B013A05D011F8013B05F8013BA8
:10019000013AF3D1F0600120F0BC7047C0189042E2
:1001A00017D37819121B11F8013B00F8013B013CF1
:1001B000F9D1141C05D011F8013B05F8013B013AB7
:1001C000F9D1F4600120F0BC7047C01B01389042A7
:1001D000D1D20020F0BC7047601E002080B586B0F0
:1001E00002AF00F0DBFA00F079F84FF4613003F071
:1001F000B3F900F0B9F82E4B1B682D4A43F0807319
:1002000013602C4B1B682B4A43F00103136002F070
:100210005FFF294B0193022300930023C822274943
:10022000274801F06CFCF860FB68012B0AD04FF006
:10023000500383F31188BFF36F8FBFF34F8FBB6001
:1002400000BFFEE71F4B0193032300930023C82246
:100250001D491E4801F053FCF860FB68012B0AD0D1
:100260004FF0500383F31188BFF36F8FBFF34F8FAD
:100270007B6000BFFEE7164B01930423009300232D
:10028000C8221449144801F03AFCF860FB68012BBD
:100290000AD04FF0500383F31188BFF36F8FBFF381
:1002A0004F8F3B6000BFFEE701F0C8FFFEE700BFD5
:1002B000FCED00E0001000E0380000203458000899
:1002C000DD0400083C00002048580008050500082F
:1002D000400000205C5800088D04000880B590B0F4
:1002E00000AF07F1180328220021184605F08EFA06
:1002F0003B1D00221A605A609A60DA601A6101237D
:10030000BB614FF48033FB6100233B620123BB627E
:1003100002237B634FF48033BB634FF4E013FB6332
:1003200007F11803184600F045FD0346002B01D0E5
:1003300000F00BF90F237B600223BB600023FB60FE
:100340004FF480633B6100237B613B1D0221184613
:1003500000F0B2FF0346002B01D000F0F6F800BF1A
:100360004037BD4680BD000080B586B000AF07F1C4
:10037000080300221A605A609A60DA602D4B9B696C
:100380002C4A43F0200393612A4B9B6903F020031E
:100390007B607B68274B9B69264A43F0040393618B
:1003A000244B9B6903F004033B603B6800226021FF
:1003B000214800F0ADFC0423BB600223FB60032353
:1003C0007B6107F1080319461B4800F01DFB082359
:1003D000BB600023FB6000233B6107F10803194663
:1003E000154800F011FB6023BB600123FB60022372
:1003F0003B6102237B6107F1080319460E4800F0B8
:1004000003FB4FF48063BB600C4BFB6002233B613A
:1004100007F108031946084800F0F6FA0022062101
:10042000282000F0C6FA282000F0DFFA00BF1837B5
:10043000BD4680BD001002400008014000001110C0
:1004400080B582B000AF04F059FE0E4B1B68184611
:1004500001F070FE78607B68002B0AD004F0ACFEDF
:10046000094B4FF080521A60BFF34F8FBFF36F8F6D
:1004700001E004F085FE04F083FE00BF0837BD46AE
:1004800080BD00BF4000002004ED00E080B584B0D6
:1004900000AF7860002001F06FFD0E4B1B6818461E
:1004A00001F090FC0346FB730B4B1B68184601F0F0
:1004B00089FC0346BB73074B1B68BA7B1146184681
:1004C00001F09AFC044B1B68FA7B1146184601F0B8
:1004D00093FCDFE7380000203C00002080B582B0AC
:1004E00000AF7860054805F0B1F82021044800F01D
:1004F00027FC642000F084F9F4E700BF6858000886
:100500000008014080B582B000AF7860054805F072
:100510009DF84021044800F013FC4FF47A7000F07D
:100520006FF9F3E7705800080008014080B582B009
:1005300000AF78607B681B68B3F1804F01D100F099
:1005400043F900BF0837BD4680BD80B400AF72B626
:1005500000BFFEE780B582B000AF0F4B9B690E4A2B
:1005600043F0010393610C4B9B6903F001037B6033
:100570007B68094BDB69084A43F08053D361064B23
:10058000DB6903F080533B603B6802F039FA00BF3F
:100590000837BD4680BD00BF0010024080B58EB058
:1005A00000AF78600023FB620023BB62002387F862
:1005B0003330344BDB69334A43F00103D361314BB1
:1005C000DB6903F00103FB60FB6807F1100207F130
:1005D00014031146184600F0D5FF3B6AFB62FB6A24
:1005E000002B03D100F0BAFF786304E000F0B6FFFF
:1005F00003465B007B637B6B234AA2FB03239B0CBC
:10060000013BBB62214B4FF080421A601F4B40F20E
:10061000E732DA601D4ABB6A53601C4B00221A6144
:100620001A4B00229A60194B00229A61174800F079
:10063000F7FF034687F8333097F83330002B1BD190
:10064000124801F021F8034687F8333097F8333029
:10065000002B11D11C2000F0C8F97B680F2B08D8A3
:10066000002279681C2000F0A4F9094A7B68136015
:1006700002E0012387F8333097F8333018463837D3
:10068000BD4680BD0010024083DE1B4344000020B5
:100690000400002080B400AFFEE780B400AFFEE7A6
:1006A00080B400AFFEE780B400AFFEE780B400AFD7
:1006B000FEE780B400AF00BFBD4680BC70470000BD
:1006C00080B500AF024801F002F800BF80BD00BF56
:1006D0004400002080B500AFFFF7B2FE4FF4806009
:1006E00000F046FB00BF80BD80B400AF154B1B6817
:1006F000144A43F001031360124B5A681149124B1C
:1007000013404B600F4B1B680E4A23F0847323F495
:10071000803313600B4B1B680A4A23F48023136059
:10072000084B5B68074A23F4FE035360054B4FF404
:100730001F029A60054B4FF000629A6000BFBD46F1
:1007400080BC7047001002400000FFF800ED00E0A0
:10075000002103E00B4B5B58435004310A480B4B1C
:1007600042189A42F6D30A4A02E0002342F8043BB8
:10077000084B9A42F9D3FFF7B7FF05F005F8FFF7EA
:100780002DFD704794590008000000201C00002037
:100790001C00002034340020FEE7000080B500AFCC
:1007A000084B1B68074A43F010031360032000F056
:1007B000F5F80F20FFF7F2FEFFF7CCFE00231846F6
:1007C00080BD00BF0020024080B400AF054B1B7805
:1007D0001A46054B1B681344034A136000BFBD460D
:1007E00080BC7047080000208400002080B400AF67
:1007F000024B1B681846BD4680BC70478400002031
:1008000080B584B000AF7860FFF7F0FFB8607B6818
:10081000FB60FB68B3F1FF3F05D00A4B1B781A461B
:10082000FB681344FB6000BFFFF7E0FF0246BB68B4
:10083000D31AFA689A42F7D800BF00BF1037BD46F6
:1008400080BD00BF0800002080B485B000AF786094
:100850007B6803F00703FB600C4BDB68BB60BA6886
:100860004FF6FF031340BB60FB681A02BB681343DB
:1008700043F0BF6343F40033BB60044ABB68D360FA
:1008800000BF1437BD4680BC704700BF00ED00E0DC
:1008900080B400AF044BDB681B0A03F00703184663
:1008A000BD4680BC704700BF00ED00E080B483B05F
:1008B00000AF0346FB7197F90730002B0BDBFB7988
:1008C00003F01F02064997F907305B09012000FA7F
:1008D00002F241F8232000BF0C37BD4680BC7047B0
:1008E00000E100E080B483B000AF03463960FB71E3
:1008F00097F90730002B0ADB3B68DAB20C4997F90D
:1009000007301201D2B20B4483F800230AE03B689F
:10091000DAB20849FB7903F00F03043B1201D2B2AB
:100920000B441A7600BF0C37BD4680BC704700BF31
:1009300000E100E000ED00E080B489B000AFF860B5
:10094000B9607A60FB6803F00703FB61FB69C3F1E0
:100950000703042B28BF0423BB61FB690433062B68
:1009600002D9FB69033B00E000237B614FF0FF32BB
:10097000BB6902FA03F3DA43BB681A407B699A4009
:100980004FF0FF317B6901FA03F3D9437B680B40D9
:10099000134318462437BD4680BC704780B582B0EB
:1009A00000AF78607868FFF74FFF00BF0837BD469B
:1009B00080BD80B586B000AF0346B9607A60FB7336
:1009C00000237B61FFF764FF78617A68B968786912
:1009D000FFF7B2FF024697F90F3011461846FFF7AE
:1009E00081FF00BF1837BD4680BD80B582B000AF23
:1009F0000346FB7197F907301846FFF757FF00BF12
:100A00000837BD4680BD000080B48BB000AF786071
:100A1000396000237B6200233B6269E101227B6A2B
:100A200002FA03F3FB613B681B68FA691340BB6180
:100A3000BA69FB699A4240F058813B685B689A4A00
:100A400093425ED0984A934275D8984A934258D0C0
:100A5000964A93426FD8964A934252D0944A934210
:100A600069D8944A93424CD0924A934263D8924AAE
:100A7000934246D0904A93425DD8122B2AD8122B2B
:100A800059D801A252F823F0030B0008DD0A000830
:100A9000EF0A0008310B0008370B0008370B00087D
:100AA000370B0008370B0008370B0008370B00081E
:100AB000370B0008370B0008370B0008370B00080E
:100AC000370B0008370B0008370B0008E50A000851
:100AD000F90A0008794A934213D02CE03B68DB689E
:100AE0003B6229E03B68DB6804333B6224E03B68FF
:100AF000DB6808333B621FE03B68DB680C333B621A
:100B00001AE03B689B68002B02D104233B6213E090
:100B10003B689B68012B05D108233B627B68FA691F
:100B20001A6109E008233B627B68FA695A6103E0B5
:100B300000233B6200E000BFBB69FF2B01D87B684C
:100B400001E07B6804337B61BB69FF2B02D87B6AC1
:100B50009B0002E07B6A083B9B003B617B691A6853
:100B60000F213B6901FA03F3DB431A40396A3B6901
:100B700001FA03F31A437B691A603B685B6803F070
:100B80008053002B00F0B1804D4B9B694C4A43F0E1
:100B9000010393614A4B9B6903F00103BB60BB688F
:100BA000484A7B6A9B08023352F82330FB607B6A19
:100BB00003F003039B000F2202FA03F3DB43FA68FE
:100BC0001340FB607B68404A934213D07B683F4AE6
:100BD00093420DD07B683E4A934207D07B683D4AE2
:100BE000934201D1032306E0042304E0022302E040
:100BF000012300E000237A6A02F00302920093408E
:100C0000FA681343FB602F497B6A9B080233FA683A
:100C100041F823203B685B6803F48033002B06D047
:100C20002D4B1A682C49BB6913430B6006E02A4B15
:100C30001A68BB69DB43284913400B603B685B685B
:100C400003F40033002B06D0234B5A682249BB69BA
:100C500013434B6006E0204B5A68BB69DB431E49D7
:100C600013404B603B685B6803F48013002B06D095
:100C7000194B9A681849BB6913438B6006E0164B01
:100C80009A68BB69DB43144913408B603B685B681F
:100C900003F40013002B21D00F4BDA680E49BB6917
:100CA0001343CB6021E000BF000032100000311080
:100CB000000022100000211000001210000011108E
:100CC000001002400000014000080140000C0140FB
:100CD0000010014000140140000401400B4BDA6891
:100CE000BB69DB4309491340CB607B6A01337B62FC
:100CF0003B681A687B6A22FA03F3002B7FF48EAEFE
:100D000000BF00BF2C37BD4680BC704700040140C7
:100D100080B483B000AF78600B467B8013467B7055
:100D20007B78002B03D07A887B681A6103E07B888C
:100D30001A047B681A6100BF0C37BD4680BC70473F
:100D400080B483B000AF78600B467B807B68DA6844
:100D50007B881340002B03D07A887B685A6102E0BD
:100D60007A887B681A6100BF0C37BD4680BC70472B
:100D700080B582B000AF0346FB80084B5A69FB8800
:100D80001340002B06D0054AFB885361FB881846A8
:100D900000F006F800BF0837BD4680BD00040140E2
:100DA00080B483B000AF0346FB8000BF0C37BD4664
:100DB00080BC704780B586B000AF78607B68002B40
:100DC00001D1012372E27B681B6803F00103002B51
:100DD00000F08780924B5B6803F00C03042B0CD06F
:100DE0008F4B5B6803F00C03082B12D18C4B5B68B4
:100DF00003F48033B3F5803F0BD1894B1B6803F4B8
:100E00000033002B6CD07B685B68002B68D101231A
:100E10004CE27B685B68B3F5803F06D1804B1B6872
:100E20007F4A43F4803313602EE07B685B68002BBD
:100E30000CD17B4B1B687A4A23F480331360784BC8
:100E40001B68774A23F4802313601DE07B685B688E
:100E5000B3F5A02F0CD1724B1B68714A43F4802369
:100E600013606F4B1B686E4A43F4803313600BE0D2
:100E70006B4B1B686A4A23F480331360684B1B6812
:100E8000674A23F4802313607B685B68002B13D0D0
:100E9000FFF7ACFC386108E0FFF7A8FC02463B69AD
:100EA000D31A642B01D9032300E25D4B1B6803F4C2
:100EB0000033002BF0D014E0FFF798FC386108E015
:100EC000FFF794FC02463B69D31A642B01D9032334
:100ED000ECE1534B1B6803F40033002BF0D100E02E
:100EE00000BF7B681B6803F00203002B63D04C4BF0
:100EF0005B6803F00C03002B0BD0494B5B6803F0DD
:100F00000C03082B1CD1464B5B6803F48033002B89
:100F100016D1434B1B6803F00203002B05D07B68FE
:100F20001B69012B01D00123C0E13D4B1B6823F05D
:100F3000F8027B685B69DB00394913430B603AE0D8
:100F40007B681B69002B20D0364B01221A60FFF70B
:100F50004DFC386108E0FFF749FC02463B69D31AB3
:100F6000022B01D90323A1E12D4B1B6803F00203DF
:100F7000002BF0D02A4B1B6823F0F8027B685B69DA
:100F8000DB00274913430B6015E0264B00221A6053
:100F9000FFF72CFC386108E0FFF728FC02463B69AC
:100FA000D31A022B01D9032380E11D4B1B6803F0E8
:100FB0000203002BF0D17B681B6803F00803002BB1
:100FC0003AD07B689B69002B19D0174B01221A601D
:100FD000FFF70CFC386108E0FFF708FC02463B69AC
:100FE000D31A022B01D9032360E10D4B5B6A03F096
:100FF0000203002BF0D0012000F0F4FA1CE00A4BB1
:1010000000221A60FFF7F2FB38610FE0FFF7EEFBFA
:1010100002463B69D31A022B08D9032346E100BFDD
:10102000001002400000424280044242924B5B6A40
:1010300003F00203002BE9D17B681B6803F0040373
:10104000002B00F0A6800023FB758B4BDB6903F0BF
:101050008053002B0DD1884BDB69874A43F08053C6
:10106000D361854BDB6903F08053BB60BB68012310
:10107000FB75824B1B6803F48073002B18D17F4BE8
:101080001B687E4A43F480731360FFF7AFFB38613F
:1010900008E0FFF7ABFB02463B69D31A642B01D98A
:1010A000032303E1754B1B6803F48073002BF0D01E
:1010B0007B68DB68012B06D16F4B1B6A6E4A43F0DD
:1010C000010313622DE07B68DB68002B0CD16A4BB7
:1010D0001B6A694A23F001031362674B1B6A664A65
:1010E00023F0040313621CE07B68DB68052B0CD142
:1010F000614B1B6A604A43F0040313625E4B1B6A38
:101100005D4A43F0010313620BE05B4B1B6A5A4AD2
:1011100023F001031362584B1B6A574A23F0040360
:1011200013627B68DB68002B15D0FFF75FFB38612B
:101130000AE0FFF75BFB02463B69D31A41F28832B3
:10114000934201D90323B1E04B4B1B6A03F0020326
:10115000002BEED014E0FFF749FB38610AE0FFF7FF
:1011600045FB02463B69D31A41F28832934201D9CA
:1011700003239BE0404B1B6A03F00203002BEED1DC
:10118000FB7D012B05D13C4BDB693B4A23F08053AF
:10119000D3617B68DB69002B00F08780364B5B688E
:1011A00003F00C03082B61D07B68DB69022B46D16E
:1011B000334B00221A60FFF719FB386108E0FFF794
:1011C00015FB02463B69D31A022B01D903236DE0BC
:1011D000294B1B6803F00073002BF0D17B681B6A5E
:1011E000B3F5803F08D1244B5B6823F400327B6861
:1011F0009B68214913434B601F4B5B6823F47412B7
:101200007B68196A7B685B6A0B431B4913434B601D
:101210001B4B01221A60FFF7E9FA386108E0FFF77B
:10122000E5FA02463B69D31A022B01D903233DE0BC
:10123000114B1B6803F00073002BF0D035E0104B0E
:1012400000221A60FFF7D2FA386108E0FFF7CEFA01
:1012500002463B69D31A022B01D9032326E0064B31
:101260001B6803F00073002BF0D11EE07B68DB6984
:10127000012B07D1012319E000100240007000404B
:10128000600042420B4B5B68FB60FB6803F48032FA
:101290007B681B6A9A4206D1FB6803F470127B6874
:1012A0005B6A9A4201D0012300E0002318461837F8
:1012B000BD4680BD0010024080B584B000AF7860AC
:1012C00039607B68002B01D10123D0E06A4B1B6899
:1012D00003F007033A689A4210D9674B1B6823F062
:1012E000070265493B6813430B60634B1B6803F0BF
:1012F00007033A689A4201D00123B8E07B681B6873
:1013000003F00203002B20D07B681B6803F004036A
:10131000002B05D0594B5B68584A43F4E063536097
:101320007B681B6803F00803002B05D0534B5B68F8
:10133000524A43F460535360504B5B6823F0F00211
:101340007B689B684D4913434B607B681B6803F0C7
:101350000103002B40D07B685B68012B07D1474B12
:101360001B6803F40033002B15D101237FE07B6859
:101370005B68022B07D1414B1B6803F00073002B05
:1013800009D1012373E03D4B1B6803F00203002BDE
:1013900001D101236BE0394B5B6823F003027B68CA
:1013A0005B68364913434B60FFF720FAF8600AE0A8
:1013B000FFF71CFA0246FB68D31A41F288329342C7
:1013C00001D9032353E02D4B5B6803F00C027B68CB
:1013D0005B689B009A42EBD1274B1B6803F0070325
:1013E0003A689A4210D2244B1B6823F00702224924
:1013F0003B6813430B60204B1B6803F007033A68FC
:101400009A4201D0012332E07B681B6803F0040399
:10141000002B08D0194B5B6823F4E0627B68DB6823
:10142000164913434B607B681B6803F00803002BCD
:1014300009D0124B5B6823F460527B681B69DB00A8
:101440000E4913434B6000F021F802460B4B5B68DA
:101450001B0903F00F030A49CB5C22FA03F3094A84
:101460001360094B1B681846FFF798F800231846CD
:101470001037BD4680BD00BF002002400010024072
:101480004C590008000000200400002090B48AB0ED
:1014900000AF294B3C1D0FCB84E80F0040F2012325
:1014A0003B800023FB610023BB6100237B620023A0
:1014B0007B6100233B62214B5B68FB61FB6903F0AE
:1014C0000C03042B02D0082B03D02BE01C4B3B62F7
:1014D0002BE0FB699B0C03F00F0328333B4413F80C
:1014E000243C7B61FB6903F48033002B12D0134B47
:1014F0005B685B0C03F0010328333B4413F8283C82
:10150000BB617B690E4A03FB02F2BB69B2FBF3F3DA
:101510007B6204E07B690B4A02FB03F37B627B6A1C
:101520003B6202E0064B3B6200BF3B6A184628372D
:10153000BD4690BC704700BF7858000800100240BC
:1015400000127A0000093D0080B400AF024B1B6816
:101550001846BD4680BC70470000002080B500AF33
:10156000FFF7F2FF0246054B5B681B0A03F0070317
:101570000349CB5C22FA03F3184680BD00100240F9
:101580005C59000880B483B000AF786039607B6834
:101590000F221A60114B5B6803F003027B685A60EC
:1015A0000E4B5B6803F0F0027B689A600B4B5B6844
:1015B00003F4E0627B68DA60084B5B68DB0803F4E5
:1015C000E0627B681A61064B1B6803F007023B6808
:1015D0001A6000BF0C37BD4680BC70470010024047
:1015E0000020024080B485B000AF78600A4B1B68D1
:1015F0000A4AA2FB03235B0A7A6802FB03F3FB603F
:1016000000BFFB685A1EFA60002BF9D100BF00BF73
:101610001437BD4680BC704700000020D34D6210D7
:1016200080B582B000AF78607B68002B01D10123C8
:101630001DE07B6893F83D30DBB2002B06D17B6860
:10164000002283F83C20786800F015F87B680222BD
:1016500083F83D207B681A687B680433194610467E
:1016600000F062F97B68012283F83D2000231846D0
:101670000837BD4680BD80B483B000AF786000BF3E
:101680000C37BD4680BC704780B485B000AF786031
:101690007B681B68DA687B681B6842F00102DA60CD
:1016A0007B681B689B6803F00703FB60FB68062BE5
:1016B00007D07B681B681A687B681B6842F00102D0
:1016C0001A60002318461437BD4680BC704780B5A9
:1016D00082B000AF78607B681B681B6903F002036F
:1016E000022B22D17B681B68DB6803F00203022B0C
:1016F0001BD17B681B686FF002021A617B680122B4
:101700001A777B681B689B6903F00303002B03D0E7
:10171000786800F0EDF805E0786800F0E0F87868A7
:1017200000F0EFF87B6800221A777B681B681B6962
:1017300003F00403042B22D17B681B68DB6803F0F1
:101740000403042B1BD17B681B686FF004021A6131
:101750007B6802221A777B681B689B6903F44073DD
:10176000002B03D0786800F0C3F805E0786800F03B
:10177000B6F8786800F0C5F87B6800221A777B68B5
:101780001B681B6903F00803082B22D17B681B68C8
:10179000DB6803F00803082B1BD17B681B686FF024
:1017A00008021A617B6804221A777B681B68DB6970
:1017B00003F00303002B03D0786800F099F805E0EC
:1017C000786800F08CF8786800F09BF87B6800225D
:1017D0001A777B681B681B6903F01003102B22D15A
:1017E0007B681B68DB6803F01003102B1BD17B6840
:1017F0001B686FF010021A617B6808221A777B68F9
:101800001B68DB6903F44073002B03D0786800F099
:101810006FF805E0786800F062F8786800F071F819
:101820007B6800221A777B681B681B6903F0010341
:10183000012B0ED17B681B68DB6803F00103012BD1
:1018400007D17B681B686FF001021A617868FEF7A8
:101850006DFE7B681B681B6903F08003802B0ED133
:101860007B681B68DB6803F08003802B07D17B68F3
:101870001B686FF080021A61786800F0C0F87B681E
:101880001B681B6903F04003402B0ED17B681B686B
:10189000DB6803F04003402B07D17B681B686FF0C7
:1018A00040021A61786800F035F87B681B681B6994
:1018B00003F02003202B0ED17B681B68DB6803F04C
:1018C0002003202B07D17B681B686FF020021A6170
:1018D000786800F08BF800BF0837BD4680BD80B443
:1018E00083B000AF786000BF0C37BD4680BC704746
:1018F00080B483B000AF786000BF0C37BD4680BCB9
:10190000704780B483B000AF786000BF0C37BD462D
:1019100080BC704780B483B000AF786000BF0C37E4
:10192000BD4680BC7047000080B485B000AF7860D1
:1019300039607B681B68FB607B68294A93420BD047
:101940007B68B3F1804F07D07B68264A934203D06F
:101950007B68254A934208D1FB6823F07003FB6043
:101960003B685B68FA681343FB607B681C4A9342E0
:101970000BD07B68B3F1804F07D07B68194A934244
:1019800003D07B68184A934208D1FB6823F4407364
:10199000FB603B68DB68FA681343FB60FB6823F07D
:1019A00080023B685B691343FB607B68FA681A60DE
:1019B0003B689A687B68DA623B681A687B689A625F
:1019C0007B68074A934203D13B681A697B681A63B4
:1019D0007B6801225A6100BF1437BD4680BC704746
:1019E000002C0140000400400008004080B483B097
:1019F00000AF786000BF0C37BD4680BC704780B434
:101A000083B000AF786000BF0C37BD4680BC704724
:101A100080B483B000AF78607B6803F108027B6814
:101A20005A607B684FF0FF329A607B6803F10802CE
:101A30007B68DA607B6803F108027B681A617B6867
:101A400000221A6000BF0C37BD4680BC704780B4CE
:101A500083B000AF78607B6800221A6100BF0C374A
:101A6000BD4680BC704780B485B000AF78603960F7
:101A70007B685B68FB603B68FA685A60FB689A6841
:101A80003B689A60FB689B683A685A60FB683A68F2
:101A90009A603B687A681A617B681B685A1C7B688D
:101AA0001A6000BF1437BD4680BC704780B485B053
:101AB00000AF78607B681B69FB607B685B687A6855
:101AC00092689A607B689B687A6852685A60FB6883
:101AD0005B687A689A4203D17B689A68FB685A60AF
:101AE0007B6800221A61FB681B685A1EFB681A603B
:101AF000FB681B6818461437BD4680BC704780B52C
:101B00008CB004AFF860B9603B601346FB80FB8883
:101B10009B00184601F0D2F878617B69002B0ED04B
:101B2000602001F0CBF8F861FB69002B03D0FB6962
:101B30007A691A6305E0786901F0A0F901E00023F1
:101B4000FB61FB69002B13D0FA8800230393FB6928
:101B50000293FB6A0193BB6A00933B68B968F8681B
:101B600000F00EF8F86900F0A1F80123BB6102E073
:101B70004FF0FF33BB61BB6918462037BD4680BDBF
:101B800080B588B000AFF860B9607A603B603B6BAD
:101B9000186B7B689B001A46A52103F037FE3B6B50
:101BA0001A6B7B6803F18043013B9B001344BB61CC
:101BB000BB6923F00703BB61BB6903F00703002B7C
:101BC0000AD04FF0500383F31188BFF36F8FBFF338
:101BD0004F8F7B6100BFFEE7BB68002B1FD0002347
:101BE000FB6112E0BA68FB69134419783A6BFB6930
:101BF000134434330A461A70BA68FB6913441B78DD
:101C0000002B06D0FB690133FB61FB69132BE9D97B
:101C100000E000BF3B6B002283F8472003E03B6BF2
:101C2000002283F83420BB6A042B01D90423BB6251
:101C30003B6BBA6ADA623B6BBA6A1A653B6B00228D
:101C40005A653B6B04331846FFF701FF3B6B1833B3
:101C50001846FFF7FCFE3B6B3A6B1A61BB6AC3F197
:101C600005023B6B9A613B6B3A6B5A623B6B583394
:101C700004220021184603F0C9FD3B6B5C330122AE
:101C80000021184603F0C2FD3A68F968B86900F00F
:101C9000C7FD02463B6B1A60FB6A002B02D0FB6A51
:101CA0003A6B1A6000BF2037BD4680BDB0B584B026
:101CB00002AF786000F0FAFE3B4B1B6801333A4AF2
:101CC00013603A4B1B68002B09D1384A7B681360BC
:101CD000354B1B68012B10D100F00AFD0DE0344B91
:101CE0001B68002B09D1314B1B68DA6A7B68DB6A01
:101CF0009A4202D82D4A7B6813602E4B1B68013331
:101D00002C4A13602B4B1A687B689A647B68002B03
:101D100016D07B68184603F087FA78687B6803F171
:101D200034017B68DA6A7B681B6B1D467B681B6825
:101D30001C467B681B6BE31A00932B4601F06AFA82
:101D40007B68184603F0F4FA7B68DB6A01229A404C
:101D5000194B1B681343184A13607B68DA6A1346F1
:101D60009B0013449B00154A1A447B6804331946B0
:101D70001046FFF778FE00F0C9FE0D4B1B68002BE4
:101D80000ED00A4B1B68DA6A7B68DB6A9A4207D27C
:101D90000B4B4FF080521A60BFF34F8FBFF36F8F22
:101DA00000BF0837BD46B0BD60010020880000209C
:101DB0006C0100207C010020680100208C000020C4
:101DC00004ED00E080B584B000AF786000F06EFEF6
:101DD0007B68002B02D1074B1B6800E07B68FB602F
:101DE000FB68DB6ABB6000F091FEBB6818461037E9
:101DF000BD4680BD8800002080B58AB002AF786003
:101E000039600023FB613B68042B0AD94FF0500373
:101E100083F31188BFF36F8FBFF34F8FFB6000BF59
:101E2000FEE73B68042B01D904233B6000F03EFE33
:101E30007B68002B02D14C4B1B6800E07B68BB61C8
:101E4000BB69184603F016FB03463A68194628207A
:101E500002F030FEB869BB6903F13401BB691B6B4A
:101E60001A460023009313463A6801F03BFABB6917
:101E70001B6D7B617A693B689A426FD03A687B69D7
:101E80009A420DD9384B1B68BA699A420FD0364B2B
:101E90001B68DB6A3A689A4209D30123FB6106E0BA
:101EA000314B1B68BA699A4201D10123FB61BB69BE
:101EB000DB6A3B61BB691A6DBB69DB6A9A4202D17E
:101EC000BB693A68DA62BB693A681A65BB699B69A3
:101ED000002B04DB3B68C3F10502BB699A61BB6957
:101EE00059693A6913469B0013449B001F4A1344E7
:101EF000994228D1BB6904331846FFF7D7FD034642
:101F0000002B09D101223B6902FA03F3DA43184B93
:101F10001B681340164A1360BB69DB6A01229A40B2
:101F2000134B1B681343124A1360BB69DA6A1346EA
:101F30009B0013449B000D4A1A44BB6904331946A5
:101F40001046FFF790FDFB69002B07D0094B4FF0BF
:101F500080521A60BFF34F8FBFF36F8F00F0D6FD32
:101F600000BF2037BD4680BD880000208C000020C7
:101F70006801002004ED00E080B586B000AF786015
:101F800000F094FD7B68002B02D14A4B1B6800E0F7
:101F90007B683B613B69184603F06CFA03461946BF
:101FA000292002F04BFD3B6904331846FFF77EFD04
:101FB0000346002B15D13B69DA6A3F4913469B0063
:101FC00013449B000B441B68002B0AD13B69DB6A5E
:101FD000012202FA03F3DA43384B1B681340374AF5
:101FE00013603B699B6A002B04D03B691833184689
:101FF000FFF75CFD3B691B21184603F0DBF93B69E9
:10200000043319462E48FFF72EFD00237B6110E0B4
:102010003A697B6913445C331B78DBB2012B05D131
:102020003A697B6913445C3300221A707B6901337F
:102030007B617B69002BEBDD00F068FD214B1B68A9
:10204000002B05D000F032FD00F0D0FB00F05EFD6B
:10205000184B1B683A699A4227D11A4B1B68002B10
:1020600017D0194B1B68002B0AD04FF0500383F395
:102070001188BFF36F8FBFF34F8FFB6000BFFEE788
:10208000124B4FF080521A60BFF34F8FBFF36F8F28
:102090000BE00B4B1A680E4B1B689A4203D1054BA1
:1020A00000221A6001E000F0A1FA00BF1837BD4617
:1020B00080BD00BF880000208C0000206801002047
:1020C0004C0100206C0100208801002004ED00E09C
:1020D0006001002080B487B000AF786000237B618E
:1020E0007B683B617B68002B0AD14FF0500383F380
:1020F0001188BFF36F8FBFF34F8FFB6000BFFEE708
:102100003B695B69094A93420AD13B699B6A084A69
:10211000934205D03B699B6A002B01D101237B616F
:102120007B6918461C37BD4680BC70474C010020B7
:102130002001002080B58AB000AF786000237B6268
:102140007B683B627B68002B0AD14FF0500383F31E
:102150001188BFF36F8FBFF34F8FBB6100BFFEE7E6
:1021600000F06EFDEFF311824FF0500383F31188FE
:10217000BFF36F8FBFF34F8F7A613B617B69FB6168
:10218000386AFFF7A7FF0346002B3FD03B6A18468B
:1021900003F070F9034619462B2002F04FFC214B47
:1021A0001B68002B2CD13B6ADA6A1F4B1B68DB6A69
:1021B0009A4204D301237B621C4B01221A603B6AC2
:1021C00004331846FFF772FC3B6A184603F0B0F878
:1021D0003B6ADB6A01229A40154B1B681343144A81
:1021E00013603B6ADA6A13469B0013449B00114A52
:1021F0001A443B6A043319461046FFF734FC05E0E5
:102200003B6A183319460C48FFF72DFCFB69FB604D
:10221000FB6883F3118800BF7B6A18462837BD46E8
:1022200080BD00BF880100208800002074010020CC
:10223000680100208C0000202001002080B586B0BD
:1022400002AF244B019300230093002382222249F2
:102250002248FFF754FCF860FB68012B24D14FF0B3
:10226000500383F31188BFF36F8FBFF34F8FBB60B1
:1022700000BF1B4B4FF0FF321A601A4B01221A604D
:10228000194B00221A60194B1A68124B1B689A42AC
:1022900002D102F0ADFF04E0144B1B68184603F0B6
:1022A00005F800F03BFB0EE0FB68B3F1FF3F0AD1FD
:1022B0004FF0500383F31188BFF36F8FBFF34F8F3D
:1022C0007B6000BFFEE70A4B1B6800BF1037BD46AE
:1022D00080BD00BF8401002088580008C126000886
:1022E000800100206C010020640100208800002093
:1022F0000C00002080B400AF044B1B680133034A7C
:10230000136000BFBD4680BC704700BF880100203D
:1023100080B584B000AF0023FB600023BB60434B5B
:102320001B68002B0AD14FF0500383F31188BFF3D1
:102330006F8FBFF34F8F3B6000BFFEE700F0B6FB2F
:102340003A4B1B68013B394A1360384B1B68002B22
:1023500065D1374B1B68002B61D032E0354BDB6811
:10236000DB68FB60FB6818331846FFF79FFBFB68D0
:1023700004331846FFF79AFBFB68184602F0D8FFB3
:10238000FB68DB6A01229A402B4B1B6813432A4AE5
:102390001360FB68DA6A13469B0013449B00274ACC
:1023A0001A44FB68043319461046FFF75CFBFB68D0
:1023B000DA6A234B1B68DB6A9A4202D3214B012263
:1023C0001A601C4B1B68002BC8D1FB68002B01D086
:1023D00000F00CFA1C4B1B687B607B68002B10D054
:1023E00000F048F80346002B02D0164B01221A6079
:1023F0007B68013B7B607B68002BF1D1124B002294
:102400001A60104B1B68002B09D00123BB600F4BD7
:102410004FF080521A60BFF34F8FBFF36F8F00F001
:1024200075FBBB6818461037BD4680BD880100208B
:102430006001002020010020680100208C000020A5
:1024400088000020740100207001002004ED00E0ED
:1024500080B582B000AF00F0F3FB00237B60044B3B
:102460001B683B603B6818460837BD4680BD00BF0F
:102470006401002080B586B000AF00237B61504B23
:102480001B68002B40F092804E4B1B6801333B6170
:102490004C4A3B6913603B69002B20D14A4B1B68B7
:1024A0001B68002B0AD04FF0500383F31188BFF351
:1024B0006F8FBFF34F8F3B6000BFFEE7424B1B683F
:1024C000FB60424B1B68404A1360404AFB68136044
:1024D0003F4B1B6801333E4A136000F087F93D4BC8
:1024E0001B683A699A424CD3374B1B681B68002B18
:1024F00004D1384B4FF0FF321A6042E0324B1B6878
:10250000DB68DB68BB60BB685B687B603A697B68E3
:102510009A4203D22F4A7B68136032E0BB680433CF
:102520001846FFF7C3FABB689B6A002B04D0BB6850
:1025300018331846FFF7BAFABB68184602F0F8FEDF
:10254000BB68DB6A01229A40234B1B681343224A73
:102550001360BB68DA6A13469B0013449B001F4A52
:102560001A44BB68043319461046FFF77CFABB686F
:10257000DA6A1B4B1B68DB6A9A42B5D301237B6185
:10258000B2E7174B1B68DA6A144913469B001344E1
:102590009B000B441B68012B01D901237B61114B6C
:1025A0001B68002B07D001237B6104E00E4B1B68E6
:1025B00001330D4A13607B6918461837BD4680BD4C
:1025C0008801002064010020180100201C01002067
:1025D0007801002080010020680100208C0000208C
:1025E00088000020740100207001002080B586B0B2
:1025F00000AF2D4B1B68002B03D02C4B01221A601F
:102600004DE02A4B00221A60294B1B68FB60FB68D7
:10261000B3FA83F3FB72FB7AC3F11F037B61254995
:102620007A6913469B0013449B000B441B68002BE4
:102630000AD14FF0500383F31188BFF36F8FBFF3BC
:102640004F8F7B6000BFFEE77A6913469B001344FF
:102650009B00184A13443B613B695B685A683B69BD
:102660005A603B695A683B6908339A4204D13B6916
:102670005B685A683B695A603B695B68DB680E4A75
:1026800013600D4B1A680D4B1B689A4202D102F081
:10269000AFFD04E0084B1B68184602F007FE00BFC0
:1026A0001837BD4680BD00BF88010020740100209E
:1026B000680100208C000020880000208401002098
:1026C00080B582B000AF786000F052F8064B1B680E
:1026D000012BF9D9054B4FF080521A60BFF34F8F91
:1026E000BFF36F8FF0E700BF8C00002004ED00E027
:1026F00080B582B000AF00237B600CE07A6813469F
:102700009B0013449B00124A13441846FFF780F9BC
:102710007B6801337B607B68042BEFD90D48FFF7A2
:1027200077F90D48FFF774F90C48FFF771F90C4879
:10273000FFF76EF90B48FFF76BF90B4B054A1A6070
:102740000A4B054A1A6000BF0837BD4680BD00BF6E
:102750008C000020F0000020040100202001002057
:10276000340100204C010020180100201C01002031
:1027700080B582B000AF19E000F098F9104BDB682B
:10278000DB687B607B6804331846FFF78FF90D4BDD
:102790001B68013B0B4A13600B4B1B68013B0A4A49
:1027A000136000F0B3F9786800F010F8064B1B686E
:1027B000002BE1D100BF00BF0837BD4680BD00BF80
:1027C00034010020600100204801002080B582B063
:1027D00000AF78607B681B6B184600F04FFB786891
:1027E00000F04CFB00BF0837BD4680BD80B400AF91
:1027F000094B1B681B68002B04D1084B4FF0FF32BC
:102800001A6005E0044B1B68DB681B68034A136011
:1028100000BFBD4680BC7047180100208001002029
:1028200080B485B000AFF860B9607A60FB68043BA3
:10283000FB60FB684FF080721A60FB68043BFB6032
:10284000BB6823F00102FB681A60FB68043BFB6075
:10285000084AFB681A60FB68143BFB607A68FB68F7
:102860001A60FB68203BFB60FB6818461437BD46C6
:1028700080BC70477928000880B485B000AF002381
:102880007B60124B1B68B3F1FF3F0AD04FF050033F
:1028900083F31188BFF36F8FBFF34F8FFB6000BFCF
:1028A000FEE74FF0500383F31188BFF36F8FBFF340
:1028B0004F8FBB6000BF00BF7B68002BFCD000BF08
:1028C00000BF1437BD4680BC704700BF1000002019
:1028D000074B19680868B0E8F00F80F30988BFF368
:1028E0006F8F4FF0000080F311884EF00D0E70478F
:1028F0008800002000BF00BF06480068006880F321
:10290000088862B661B6BFF34F8FBFF36F8F00DFE9
:1029100000BF000008ED00E000BF00BF80B584B03C
:1029200000AF324BFB60FB681B78DBB27B60FB685F
:10293000FF221A70FB681B78DBB2FB70FB78DBB2FE
:1029400003F05003DAB22A4B1A702A4B07221A609E
:1029500009E0284B1B68013B264A1360FB78DBB279
:102960005B00DBB2FB70FB78DBB203F08003802BF3
:10297000EFD0204B1B68C3F10703042B0AD04FF0A4
:10298000500383F31188BFF36F8FBFF34F8FBB608A
:1029900000BFFEE7174B1B681B02164A1360154B5E
:1029A0001B6803F4E063134A13607B68DAB2FB68C8
:1029B0001A70114B1B68104A43F4700313600E4BDE
:1029C0001B680D4A43F07043136000F017F90B4B7E
:1029D00000221A60FFF790FFFFF708FEFFF74CFF99
:1029E000002318461037BD4680BD00BF00E400E05C
:1029F0008C0100209001002020ED00E0100000205C
:102A000080B485B000AF264BFB60FB681B78DBB25F
:102A10007B60FB68FF221A70FB681B78DBB2FB70DF
:102A2000FB78DBB203F05003DAB21E4B1A701E4B78
:102A300007221A6009E01C4B1B68013B1A4A13600D
:102A4000FB78DBB25B00DBB2FB70FB78DBB203F040
:102A50008003802BEFD0144B1B68C3F10703042BBA
:102A60000AD04FF0500383F31188BFF36F8FBFF389
:102A70004F8FBB6000BFFEE70B4B1B681B020A4A6F
:102A80001360094B1B6803F4E063074A13607B681B
:102A9000DAB2FB681A7000BF1437BD4680BC7047BD
:102AA00000E400E08C0100209001002080B483B09D
:102AB00000AF4FF0500383F31188BFF36F8FBFF364
:102AC0004F8F7B6000BF0F4B1B6801330D4A1360B3
:102AD0000C4B1B68012B0FD10B4B1B68DBB2002B7F
:102AE0000AD04FF0500383F31188BFF36F8FBFF309
:102AF0004F8F3B6000BFFEE700BF0C37BD4680BC78
:102B0000704700BF1000002004ED00E080B483B0E7
:102B100000AF114B1B68002B0AD14FF0500383F319
:102B20001188BFF36F8FBFF34F8F7B6000BFFEE74D
:102B3000094B1B68013B084A1360074B1B68002BBD
:102B400005D100233B603B6883F3118800BF00BFC1
:102B50000C37BD4680BC704710000020000000000C
:102B6000EFF30980BFF36F8F0D4B1A6820E9F00F68
:102B700010602DE908404FF0500080F31188FFF7F6
:102B800035FD4FF0000080F31188BDE8084019685A
:102B90000868B0E8F00F80F30988BFF36F8F7047C3
:102BA0008800002000BF00BF80B582B000AF4FF0AA
:102BB000500383F31188BFF36F8FBFF34F8F7B6098
:102BC00000BF02F09BFAFFF755FC0346002B06D02E
:102BD00002F0F2FA084B4FF080521A6001E002F066
:102BE000CFFA00233B603B6883F3118800BF00BF2E
:102BF0000837BD4680BD00BF04ED00E080B400AFE3
:102C00000A4B00221A600A4B00221A60094B1B680B
:102C1000094AA2FB03239B09084A013B1360034BAB
:102C200007221A6000BFBD4680BC704710E000E07C
:102C300018E000E000000020D34D621014E000E036
:102C400080B485B000AFEFF30583FB60FB680F2B0A
:102C500014D9164AFB6813441B78FB72144B1B787B
:102C6000FA7A9A420AD24FF0500383F31188BFF3E5
:102C70006F8FBFF34F8F7B6000BFFEE70D4B1B686C
:102C800003F4E0620C4B1B689A420AD94FF05003E0
:102C900083F31188BFF36F8FBFF34F8F3B6000BF8B
:102CA000FEE700BF1437BD4680BC7047F0E300E08C
:102CB0008C0100200CED00E09001002080B58AB06E
:102CC00000AF78600023FB61FFF714FB654B1B68C6
:102CD000002B01D100F034F9634B1A687B68134074
:102CE000002B40F0A7807B68002B2DD008227B684A
:102CF00013447A689A4227D208227B6813447B6087
:102D00007B6803F00703002B21D07B6823F00703C7
:102D100008337A689A4214D27B6823F00703083399
:102D20007B607B6803F00703002B10D04FF050034B
:102D300083F31188BFF36F8FBFF34F8F7B6100BFA9
:102D4000FEE700237B6002E000237B6000E000BF21
:102D50007B68002B6ED0454B1B687A689A4269D815
:102D6000434B3B62424B1B687B6204E07B6A3B62E5
:102D70007B6A1B687B627B6A5B687A689A4203D9CC
:102D80007B6A1B68002BF1D1364B1B687A6A9A422A
:102D900050D03B6A1B6808221344FB617B6A1A68A7
:102DA0003B6A1A607B6A5A687B68D21A08235B0008
:102DB0009A421FD97A6A7B681344BB61BB6903F0EE
:102DC0000703002B0AD04FF0500383F31188BFF3A1
:102DD0006F8FBFF34F8F3B6100BFFEE77B6A5A687E
:102DE0007B68D21ABB695A607B6A7A685A60B86994
:102DF00000F008F91D4B1A687B6A5B68D31A1B4AFE
:102E000013601A4B1A681B4B1B689A4203D2174B6C
:102E10001B68184A13607B6A5A68134B1B681A4375
:102E20007B6A5A607B6A00221A60134B1B6801336D
:102E3000114A1360FFF76CFAFB6903F00703002BDC
:102E40000AD04FF0500383F31188BFF36F8FBFF3A5
:102E50004F8FFB6000BFFEE7FB6918462837BD4671
:102E600080BD00BF9C1D0020B01D0020A01D0020C3
:102E7000941D0020A41D0020A81D002080B586B050
:102E800000AF78607B687B617B68002B4DD00823A6
:102E90005B427A6913447B617B693B613B695A6899
:102EA000244B1B681340002B0AD14FF0500383F3CF
:102EB0001188BFF36F8FBFF34F8FFB6000BFFEE73A
:102EC0003B691B68002B0AD04FF0500383F3118835
:102ED000BFF36F8FBFF34F8FBB6000BFFEE73B694F
:102EE0005A68144B1B681340002B1ED03B691B68AB
:102EF000002B1AD13B695A680E4B1B68DB431A4002
:102F00003B695A60FFF7F6F93B695A680A4B1B6840
:102F10001344094A1360386900F074F8074B1B68C2
:102F20000133064A1360FFF7F3F900BF1837BD46B7
:102F300080BD00BFB01D0020A01D0020AC1D0020E2
:102F400080B485B000AF4FF4E053BB60274BFB600B
:102F5000FB6803F00703002B0CD0FB680733FB6012
:102F6000FB6823F00703FB60BA68FB68D31A1F4AAB
:102F70001344BB60FB687B601D4A7B6813601C4B7D
:102F800000225A607B68BA681344FB600822FB6821
:102F90009B1AFB60FB6823F00703FB60FB68154A84
:102FA0001360144B1B6800225A60124B1B680022EE
:102FB0001A607B683B603B68FA68D21A3B685A60CB
:102FC0000C4B1A683B681A603B685B680A4A1360DE
:102FD0003B685B68094A1360094B4FF000421A6076
:102FE00000BF1437BD4680BC704700BF940100206D
:102FF000941D00209C1D0020A41D0020A01D002069
:10300000B01D002080B485B000AF7860274BFB6016
:1030100002E0FB681B68FB60FB681B687A689A42E9
:10302000F7D8FB68BB60FB685B68BA6813447A68D2
:103030009A4208D1FB685A687B685B681A44FB684F
:103040005A60FB687B607B68BB607B685B68BA68C2
:103050001A44FB681B689A4218D1FB681A68144B23
:103060001B689A420DD07B685A68FB681B685B68D6
:103070001A447B685A60FB681B681A687B681A6090
:1030800008E00B4B1A687B681A6003E0FB681A685B
:103090007B681A60FA687B689A4202D0FB687A689B
:1030A0001A6000BF1437BD4680BC7047941D0020D5
:1030B0009C1D002080B500AF034801F0C9FF034804
:1030C00001F0C6FF00BF80BD90580008C45800083A
:1030D00080B500AF064B1868054B1968054B064ACA
:1030E00001F03CFC4FF0805001F07CFC00BF80BD43
:1030F00000000020B530000864590008F0B585B024
:1031000002AF00237B6033E01E497A6813469B00C0
:1031100013449B000B4418681A497A6813469B00B5
:1031200013449B000B4404331968164C7A68134609
:103130009B0013449B00234408331C68114D7A689C
:1031400013469B0013449B002B440C331D680D4E0B
:103150007A6813469B0013449B00334410331B686A
:1031600000932B46224600F02DF97B6801337B60EB
:10317000054B1B687A689A42C6D300BF00BF0C3764
:10318000BD46F0BDB41D0020541E00202DE9B04FF7
:1031900082B000AFFFF75CF9034600229A469346DF
:1031A000C7E900ABD7E9000102460B464FF0000A21
:1031B0004FF0000B4FEA431B4BEAD26B4FEA421A27
:1031C00052465B46141A63EB01054FF000024FF0C4
:1031D0000003AB0043EA9473A20014461D4614EBAF
:1031E000000845EB01094FF000024FF000034FEAE1
:1031F000C90343EA58734FEAC80290469946C7E9A3
:103200000089D7E90023104619460837BD46BDE8B6
:10321000B08F000080B586B002AFF860B9607A6008
:103220003B6005222B49B86802F0D2FA0346002B16
:103230004BD0294B1B68072B03D9284802F01AFAF8
:1032400044E0254B1A68264913469B0013449B0013
:103250000B44FA681A60204B1A68214913469B00F8
:1032600013449B000B440433BA681A601A4B1A6863
:103270001B4913469B0013449B000B4408337A6898
:103280001A60154B1A68164913469B0013449B009D
:103290000B440C333A681A600F4B1A6810491346F6
:1032A0009B0013449B000B441033BA691A600A4B0D
:1032B0001B680133084A1360BB6900933B687A6856
:1032C000B968F86800F07EF800E000BF1037BD462E
:1032D00080BD00BFD4580008541E0020DC580008F0
:1032E000B41D002080B588B002AFF860B9607A6084
:1032F0003B6005223049B86802F06AFA0346002BA9
:1033000056D000237B610DE02C497A6913469B005F
:1033100013449B000B441B68FA689A4208D07B69EF
:1033200001337B61264B1B687A699A42ECD300E03B
:1033300000BF234B1B687A699A4230D21F497A69D1
:1033400013469B0013449B000B440433BA681A6075
:103350001A497A6913469B0013449B000B440833B7
:103360007A681A6015497A6913469B0013449B00DA
:103370000B440C333A681A6010497A6913469B0073
:1033800013449B000B4410333A6A1A603B6A009363
:103390003B687A68B968F86800F014F809E03B6A9D
:1033A00000933B687A68B968F868FFF733FF00E07C
:1033B00000BF1837BD4680BDD4580008B41D00209A
:1033C000541E002080B58AB000AFF860B9607A6002
:1033D0003B6007F1140314220021184602F016FA8C
:1033E000FB687B61BB68BB617B68FB613B683B62E0
:1033F0003B6B7B6207F11403184601F031FD00BFFF
:103400002837BD4680BD000080B483B000AF0346BE
:10341000FB7197F90730002B0BDBFB7903F01F02E0
:10342000064997F907305B09012000FA02F241F8DA
:10343000232000BF0C37BD4680BC704700E100E090
:1034400080B483B000AF03463960FB7197F9073051
:10345000002B0ADB3B68DAB20C4997F907301201FE
:10346000D2B20B4483F800230AE03B68DAB2084981
:10347000FB7903F00F03043B1201D2B20B441A761E
:1034800000BF0C37BD4680BC704700BF00E100E0C4
:1034900000ED00E080B582B000AF02F047F978603F
:1034A0007B68002B01D101F05FFB00BF0837BD46F0
:1034B00080BD000080B582B000AF0346FB710C4BAD
:1034C0001B78032B06D80A4B1B780133DAB2084B62
:1034D0001A7009E0FFF7DEFF054B5B681846FB1D1D
:1034E0000122194600F064FB00BF0837BD4680BDCD
:1034F0001400002080B584B000AF7860144B5B7876
:10350000032B0FD8124B5B781A46124B9A5C7B68E0
:103510001A700F4B5B780133DAB20D4B5A700123EE
:10352000FB600FE00A4B5B6801227968184600F0E7
:10353000E3F90346FB60FB68002B02DA0023FB6023
:1035400000E000BFFB6818461037BD4680BD00BFD5
:10355000140000206C59000880B582B000AF78607C
:10356000044A0549786800F061F800BF0837BD4695
:1035700080BD00BFB5340008F534000880B584B0C4
:1035800000AF1E4B1B68FB60FB6803F02003002BA1
:1035900011D01B4B1B68DBB2FB71FB6803F00B0304
:1035A000002B08D1174B1B68002B04D0154B1B6850
:1035B000FA7910469847FB6803F08003002B1AD075
:1035C000114B1B68002B15D00F4B1B68FA1D1046C2
:1035D0009847B860BB68002B06D10C4B1B680B4AA0
:1035E00023F08003136006E0044B1B68FA79044B58
:1035F0001A6000E000BF1037BD4680BD00440040A7
:1036000004440040581E00205C1E00200C44004072
:1036100080B400AF044B1B68034A43F0800313607F
:1036200000BFBD4680BC70470C44004080B586B0EA
:1036300000AFF860B9607A601D4B1B681C4A43F408
:10364000003313601B4B42F22C021A601A4B00220B
:103650001A601A4B80221A60FB681B017B61184AB2
:103660007B69B2FBF3F301337B617B695B087B61B0
:103670007B69B3F5805F02D340F6FF737B617B69A2
:10368000002B04D07B691B010E4A9BB213600E4ACB
:103690007B6813600D4ABB68136006212620FFF784
:1036A000CFFE2620FFF7B0FE00BF1837BD4680BD15
:1036B0001C1002400C4400401044004014440040E0
:1036C00000A24A0408440040581E00205C1E00204E
:1036D00080B483B000AF214B7B607B6803221A610A
:1036E0007B6803225A617B681D4A9A617B681D4A88
:1036F000DA617B684FF480621A627B6800229A620A
:103700007B6800225A627B680022DA627B68144A76
:103710001A667B68144A5A667B6810229A667B6830
:1037200000221A677B680022DA667B6800225A67EB
:103730007B6807330D4A106818607B680C4A106874
:1037400018609188927999809A717B6820229A7189
:1037500000BF0C37BD4680BC704700BF601E002014
:103760002C590008081F00200823002038590008A1
:103770003C59000880B58AB000AFF860B9607A6043
:1037800000233B62FB68DB68FB61FB681B69BB6174
:10379000BA69FB699A4205D9BA69FB69D31A013B38
:1037A0007B6207E0FB689A68B969FB69CB1A13442E
:1037B000013B7B62FB689A68FB69D31A7A6A934281
:1037C00028BF13467B627A6A7B68934228BF134600
:1037D0007B62FB685A68FB6913447B617A6AB9684B
:1037E000786902F005F83A6A7B6A13443B62BA686A
:1037F0007B6A1344BB607A687B6AD31A7B60FA6980
:103800007B6A1344FB61FB689B68FA699A4201D1A9
:103810000023FB61FB68FA69DA607B68002BB4D196
:103820003B6A18462837BD4680BD80B588B000AFDA
:10383000F860B9607A60FB68DB68FB61FB689A68D6
:10384000FB69D31ABB61BA697B689A420FD9FB68DE
:103850005A68FB6913443B617A68B968386901F0BA
:10386000C7FFFA697B681A44FB68DA601DE0BB6930
:103870007B61FB685A68FB6913443B617A69B968EC
:10388000386901F0B5FF7A68BB69D31A7B61FB68C0
:103890005B683B61BA68BB6913447A691946386949
:1038A00001F0A6FFFB687A69DA6000BF2037BD46E9
:1038B00080BD80B487B000AF78607B681B693B61D6
:1038C0007B68DB68FB603A69FB689A4208D87B68D2
:1038D0009A68FB68D21A3B691344013B7B6104E0A0
:1038E0003A69FB68D31A013B7B617B6918461C3738
:1038F000BD4680BC7047000080B58CB000AFF8605A
:10390000B9607A603E4B3B623B6A1B78DBB2002BAE
:1039100001D1FFF7DDFEFB685A1C13465B00134420
:10392000DB00374A1344FB61BB687B62FB691B69A0
:10393000BB62FB69DB68BB610023FB62BA6ABB69DF
:103940009A422BD9FB699A68BB6AD31A7B617A6960
:103950007B68934228BF13467B61FB695A68BB6A48
:1039600013443B617A693969786A01F041FFFA6A68
:103970007B691344FB627A6A7B6913447B627A68D1
:103980007B69D31A7B60BA6A7B691344BB62FB69AB
:103990009B68BA6A9A4201D10023BB62BA69BB6ACA
:1039A000D31A7B617A697B68934228BF13467B6197
:1039B0007B69002B19D0FB695A68BB6A13443B61D1
:1039C0007A693969786A01F013FFFA6A7B691344EE
:1039D000FB627A6A7B6913447B627A687B69D31ADB
:1039E0007B60BA6A7B691344BB62FB6A002B02D01E
:1039F000FB69BA6A1A61FB6A18463037BD4680BD5A
:103A0000601E002080B58CB000AFF860B9607A60AD
:103A10003E4B3B623B6A1B78DBB2002B01D1FFF7C8
:103A200057FEFA6813465B001344DB006033374AE5
:103A30001344FB61BB687B62FB691B69BB62FB696A
:103A4000DB68BB610023FB62BA6ABB699A422BD96F
:103A5000FB699A68BB6AD31A7B617A697B68934277
:103A600028BF13467B61FB695A68BB6A13443B61FC
:103A70007A693969786A01F0BBFEFA6A7B69134496
:103A8000FB627A6A7B6913447B627A687B69D31A2A
:103A90007B60BA6A7B691344BB62FB699B68BA6A44
:103AA0009A4201D10023BB62BA69BB6AD31A7B6117
:103AB0007A697B68934228BF13467B617B69002B40
:103AC00019D0FB695A68BB6A13443B617A6939694A
:103AD000786A01F08DFEFA6A7B691344FB627A6AA8
:103AE0007B6913447B627A687B69D31A7B60BA6A0C
:103AF0007B691344BB62FB6A002B02D0FB69BA6A84
:103B00001A61FB6A18463037BD4680BD601E002032
:103B100080B588B000AFF860B9607A60BB68BB61FF
:103B2000FA6813465B001344DB0060331F4A1344FA
:103B30007B617B695B69022B29D0022B2ED8002B7D
:103B400002D0012B13D029E07869FFF7B2FE38616B
:103B50003A697B689A4202D20023FB6121E07B68CC
:103B6000FB617A68B9697869FFF75FFE19E07869E7
:103B7000FFF79FFE38617A683B69934228BF13467E
:103B8000FB61FA69B9697869FFF74FFE09E07A6865
:103B9000B9697869FFF7EEFDF86102E00023FB6187
:103BA00000BFFB6918462037BD4680BD601E00205F
:103BB00080B588B000AFF860B9607A600E4BFB61E9
:103BC000FB691B78DBB2002B01D1FFF781FDEFF31E
:103BD00011834FF0200181F31188BB617A68B968C5
:103BE000F868FFF795FF7861BB6983F311887B69FB
:103BF00018462037BD4680BD601E002080B588B0C5
:103C000000AFF860B9607A603B603C4BBB61BB6958
:103C10001B78DBB2002B01D1FFF75AFDEFF31183C4
:103C20004FF0200181F311887B61344B3B6100230D
:103C3000FB613969FB695A1C13465B001344DB00C6
:103C40000B4404331B68002B08D0FB690133FB6174
:103C50003B691B69FA699A42EBDB00E000BF3B69F4
:103C60001B69FA699A423DDA3969FB695A1C1346A5
:103C70005B001344DB000B44FA681A603969FB6986
:103C80005A1C13465B001344DB000B440433BA6830
:103C90001A603969FA6913465B001344DB000B4470
:103CA00020337A681A603969FA6913465B00134455
:103CB000DB000B44283300221A603969FA69134685
:103CC0005B001344DB000B44243300221A60396983
:103CD000FA6913465B001344DB000B442C333A684B
:103CE0001A6002E04FF0FF33FB617B6983F31188B8
:103CF000FB6918462037BD4680BD00BF601E00200E
:103D000080B588B000AFF860B9607A603B60324B34
:103D1000BB61BB691B78DBB2002B01D1FFF7D8FC7C
:103D20002D4B7B617B695B691A46FB6893424BD2E2
:103D3000EFF311834FF0200181F311883B61FB68A1
:103D4000002B31D07969FA6813465B001344DB001D
:103D50000B446033BA681A607969FA6813465B00ED
:103D60001344DB000B4464337A681A607969FA689B
:103D700013465B001344DB000B4468333A681A6057
:103D80007969FA6813465B001344DB000B44703317
:103D900000221A607969FA6813465B001344DB005D
:103DA0000B446C3300221A607969FA6813465B0091
:103DB0001344DB000B447433BA6A1A603B6983F323
:103DC00011880023FB6102E04FF0FF33FB61FB69C8
:103DD00018462037BD4680BD601E002080B487B0E5
:103DE00000AFF860B9607A6000233B6102E03B6994
:103DF00001333B61BA683B6913441B78002BF6D151
:103E00003A697B689A4201D97B683B613B69FE2B2A
:103E100006D8FB685A1CFA603A69D2B21A7011E0EF
:103E2000FB685A1CFA60FF221A70FB685A1CFA6081
:103E30003A69D2B21A703B69190AFB685A1CFA60D7
:103E4000CAB21A7000237B610AE0BA68531CBB60D7
:103E5000FB68591CF96012781A707B6901337B6129
:103E60007A693B699A42F0D3FB6818461C37BD4615
:103E700080BC704780B483B000AF78607B68043347
:103E800018460C37BD4680BC7047000080B582B034
:103E900000AF364B1B7E1846FB1C01221946FFF76C
:103EA000B1FD03467B607B68002B54DDFB78802BE3
:103EB00032D0802B42DC072B16DC002B3EDD013B91
:103EC000062B3BD801A252F823F000BFEF3E0008BA
:103ED000F53E0008FB3E0008013F0008073F0008D0
:103EE0000D3F0008133F00087F2B36D026E000F07E
:103EF0003BFE37E000F0F4FE34E001F0CDF831E0B5
:103F000001F092F82EE000F011FF2BE001F060FBD1
:103F100028E001F03FFB25E0144B1B7E1846FB1CFC
:103F200001221946FFF76EFD03467B607B68002B7C
:103F300015DDFB78184601F0ADFA10E0FB785BB2B6
:103F4000002B0EDA094B1B7E1846FB1C012219467A
:103F5000FFF758FD05E000BF04E000BF02E000BF2E
:103F600000E000BF00BF0837BD4680BD2033002001
:103F700080B58CB000AF01233B713B1D0133FB6169
:103F8000FB69FB62324B5B69BB620BE0BB6ADAB276
:103F9000FB6A591CF96262F07F02D2B21A70BB6AE6
:103FA000DB09BB62BB6A7F2BF0D8FB6A5A1CFA6242
:103FB000BA6AD2B21A70FB6AFB61264B1B68BB61FE
:103FC000234BDB68BA69D31A7B61FB697B627B692F
:103FD0003B620BE03B6ADAB27B6A591C796262F0A1
:103FE0007F02D2B21A703B6ADB093B623B6A7F2BCD
:103FF000F0D87B6A5A1C7A623A6AD2B21A707B6A2B
:10400000FB61134B5B7818463B1DFA69D31A1A46BD
:104010003B1D1946FCF79CF803463B61FFF7F8FA95
:104020003B69002B09D00A4ABB69D360084B1B7857
:10403000013BDAB2064B1A7004E0054B5B690133B1
:10404000034A53613B6918463037BD4680BD00BF07
:1040500020330020041000E080B58AB000AFF86083
:10406000B9607A606D4B1B78012B10D06B4B1B78BD
:10407000002B00F0A580694B1B78022B09D1FFF7BC
:1040800077FF664B1B78012B40F09C8001E000BF5E
:1040900000E000BF7B681F2B09D8604BDA697B68A2
:1040A00022FA03F303F00103002B40F08D807B68BC
:1040B000172B07D8FB68013BFB607B68DAB2FB6813
:1040C0001A703DE0BA68FB68D31AFB61FB697F2B6D
:1040D00012D9FB69DA09FB68013BFB60D2B2FB68CD
:1040E0001A70FB69DBB2FA68013AFA6063F07F0389
:1040F000DAB2FB681A7006E0FB68013BFB60FB6903
:10410000DAB2FB681A707B687F2B12D97B68DA09F8
:10411000FB68013BFB60D2B2FB681A707B68DBB2C4
:10412000FA68013AFA6063F07F03DAB2FB681A704A
:1041300006E0FB68013BFB607B68DAB2FB681A7043
:10414000374B1B68BB61354BDB68BA69D31A7B619F
:10415000BB687B627B693B620BE03B6ADAB27B6ADD
:10416000591C796262F07F02D2B21A703B6ADB0995
:104170003B623B6A7F2BF0D87B6A5A1C7A623A6AB0
:10418000D2B21A707B6ABB60244B5B781846BA685F
:10419000FB68D31A1A46F968FBF7DAFF03463B615E
:1041A000FFF736FA3B69002B03D01C4ABB69D3608A
:1041B0000BE01A4B1B780133DAB2184B1A7004E08B
:1041C00000BF02E000BF00E000BF144B1B7E194699
:1041D000144A0B465B000B44DB0013446C331A6833
:1041E0000E4B1B7E18460F4903465B000344DB0061
:1041F0000B4470331B689A420BD0084B9B78002B02
:1042000007D1064B01229A70FFF740FE034B0022B4
:104210009A7000BF2837BD4680BD00BF2033002004
:10422000041000E0601E002080B58AB000AF786006
:104230000B46FB707B681B697B617B690133802BBC
:104240000AD87B685B68591C7A685160FA781A70E2
:104250007B695A1C7B681A617B681B69802B5AD169
:104260007B681A697B689B68D2B21A707B685B684E
:104270003B617B68DB68FB603B697B62FB683B62A0
:104280000BE03B6ADAB27B6A591C796262F07F020A
:10429000D2B21A703B6ADB093B623B6A7F2BF0D8D3
:1042A0007B6A5A1C7A623A6AD2B21A707B6A3B61A4
:1042B0003B69FB610023BB610BE0BB69DAB2FB69C0
:1042C000591CF96162F07F02D2B21A70BB69DB0936
:1042D000BB61BB697F2BF0D8FB695A1CFA61BA69D4
:1042E000D2B21A70FB693B617B689B681A223969FC
:1042F0001846FFF7B1FE7B681B681846FFF7BAFD4A
:1043000002467B689A607B689B685A1C7B685A608F
:104310007B6800221A6100BF2837BD4680BD0000BF
:1043200080B58AB000AFF860B9607A603B60BB6866
:104330003B6201237B620123FB6107E03A6A7B68F1
:10434000B2FBF3F33B62FB690133FB613A6A7B68C2
:104350009A42F3D23A68FB699A4201D93B68FB6101
:104360007B6B03F00103002B1FD13B6B002B1CD098
:104370007B6B03F00203002B05D03B68002B02D1BE
:104380003023FB7601E02023FB7607E03B6B013B0B
:104390003B63FB7E1946F868FFF746FF3B6B002B3B
:1043A00003D0FA693B6B9A42F0D33B68012B03D9E7
:1043B0003B68013B3B6009E0BA687B6AB2FBF3F300
:1043C0007B617A697B689A4200D205E07B6A7A68F1
:1043D00002FB03F37B62E8E7BA687B6AB2FBF3F3A4
:1043E0007B617B697A6A02FB03F3BA68D31ABB600C
:1043F000154A7B6913441B781946F868FFF714FFC8
:104400007A6A7B68B2FBF3F37B627B6A002BE3D1B1
:104410007B6B03F00103002B11D03B6B002B0ED004
:1044200006E03B6B013B3B632021F868FFF7FCFE95
:104430003B6B002B03D0FA693B6B9A42F1D300BF70
:104440002837BD4680BD00BF7C59000880B588B0C4
:1044500002AFF860B9607A603B60BB68002BB8BF00
:104460005B423B6101237B6107E07B683A6992FB19
:10447000F3F33B617B6901337B617B683A699A4264
:10448000F3DA3A687B699A4201D93B687B613B6AFF
:10449000002B0AD0BB68002B04DB7B6A03F004030B
:1044A000002B02D03B6A013B3B627B6A03F00203B4
:1044B000002B02D03B68002B16D07B6A03F001036F
:1044C000002B11D13B6A002B0ED006E03B6A013B6A
:1044D0003B622021F868FFF7A7FE3B6A002B03D060
:1044E0007A693B6A9A42F1D3BB68002B07DABB6852
:1044F0005B42BB602D21F868FFF796FE08E07B6AFF
:1045000003F00403002B03D02B21F868FFF78CFE87
:104510007B6A03F00203002B19D07B6A03F00103CE
:10452000002B14D13B68002B11D13B6A002B0ED01D
:1045300006E03B6A013B3B623021F868FFF774FEFE
:104540003B6A002B03D07A693B6A9A42F1D3B9687F
:104550007B6A01933B6A00933B687A68F868FFF7CF
:10456000DFFE00BF1837BD4680BD000080B598B0A3
:1045700002AFF860B9607A60EFF311834FF0200169
:1045800081F311883B63B748FFF774FCF862B54BC1
:104590007B6100237B62FB6AFB61FB690133BB61CA
:1045A000BB683B62FB681B7887F85730FB680133B8
:1045B000FB6097F85730002B00F0838197F8573055
:1045C000252B40F070810023BB6401233B65FB6811
:1045D0001B7887F8573097F85730233B0D2B3FD87F
:1045E00001A252F823F000BF5146000861460008BE
:1045F00061460008614600086146000861460008FF
:10460000614600086146000841460008614600080E
:10461000214600086146000861460008314600084E
:10462000BB6C43F00103BB64FB680133FB601AE021
:10463000BB6C43F00203BB64FB680133FB6012E018
:10464000BB6C43F00403BB64FB680133FB600AE00E
:10465000BB6C43F00803BB64FB680133FB6002E002
:1046600000233B6500BF3B6D002BB0D100237B6472
:10467000FB681B7887F8573097F857302F2B12D9E3
:1046800097F85730392B0ED8FB680133FB607A6CF2
:1046900013469B0013445B001A4697F857301344A7
:1046A000303B7B64E4E70023FB64FB681B7887F8FE
:1046B000573097F857302E2B1DD1FB680133FB6024
:1046C000FB681B7887F8573097F857302F2B12D993
:1046D00097F85730392B0ED8FB680133FB60FA6C22
:1046E00013469B0013445B001A4697F85730134457
:1046F000303BFB64E4E7FB681B7887F8573097F89A
:1047000057306C2B03D097F85730682B07D1FB68D4
:104710001B7887F85730FB680133FB60EFE797F8A9
:104720005730252B00F0B380252BC0F2B780782BB3
:1047300000F3B480582BC0F2B180583B202B00F21C
:10474000AD8001A252F823F03F4800089D480008C0
:104750009D4800089D4800089D4800089D480008A5
:104760009D4800089D4800089D4800089D48000895
:104770009D480008CD470008F34700089D48000801
:104780009D4800089D4800089D4800089D48000875
:104790009D4800089D4800089D4800089D48000865
:1047A0009D4800089D480008694800089D48000889
:1047B0009D4800089D4800089D48000819480008C9
:1047C0009D4800089D4800083F4800087B681B681A
:1047D000191D7A6811601B683B653B6D87F82B30AB
:1047E00097F82B2007F1140311461846FFF71CFD1C
:1047F00055E07B681B68191D7A6811601B683B6572
:1048000007F11400BB6C01937B6C0093FB6C0A22D4
:10481000396DFFF71BFE42E07B681B68191D7A6843
:1048200011601B683B65396D07F11400BB6C019387
:104830007B6C0093FB6C0A22FFF772FD2FE07B6814
:104840001B68191D7A6811601B683B65396D07F19B
:104850001400BB6C01937B6C0093FB6C1022FFF780
:104860005FFD1CE0503300207B681B68191D7A68CF
:1048700011601B683B65396D07F11400002301933B
:104880000823009308231022FFF74AFD07E007F1F1
:10489000140325211846FFF7C7FC00E000BFFB68A2
:1048A0000133FB6007E097F8572007F11403114626
:1048B0001846FFF7B9FCFB681B78002B7FF472AE3B
:1048C00000E000BF7B6A002B41D07A6AFB69D2B25C
:1048D0001A70BB693B643B6AFB630BE0FB6BDAB2AB
:1048E0003B6C591C396462F07F02D2B21A70FB6BC8
:1048F000DB09FB63FB6B7F2BF0D83B6C5A1C3A64E3
:10490000FA6BD2B21A703B6CBB61BB69BB6300230C
:104910007B630BE07B6BDAB2BB6B591CB96362F053
:104920007F02D2B21A707B6BDB097B637B6B7F2BC0
:10493000F0D8BB6B5A1CBA637A6BD2B21A70BB6BDD
:10494000BB61FB69B9691A221846FFF785FB3B6B0F
:1049500083F3118800BF5837BD4680BD80B586B04F
:1049600002AFF860B9607A603B6000234FF4805278
:1049700017491848FFF742F90346DAB2164B5A7046
:10498000154B5A78144B1A76134B1B7E184600238E
:1049900000930823114A0F49FFF7B2F90E4B00228A
:1049A0001A610F4B1B680C4AD3600B4A7B68136279
:1049B000094AFB685360084ABB689360064A3B6833
:1049C0005362054B00221A7000BF1037BD4680BDF0
:1049D00018230020445900082033002018330020F9
:1049E000041000E080B483B000AF7860034A7B68B5
:1049F000136100BF0C37BD4680BC704720330020D8
:104A000080B584B000AF7860EFF311834FF02001E0
:104A100081F31188FB600848FFF72CFAB8607A68C8
:104A2000B968B868FFF718FBFB6883F3118800BF0B
:104A30001037BD4680BD00BF5033002080B588B020
:104A400000AF78603960EFF311834FF0200181F3FC
:104A500011887B611648FFF70DFA38613B69FB60EE
:104A6000FB68FB613B68BB610BE0BB69DAB2FB69C9
:104A7000591CF96162F07F02D2B21A70BB69DB097E
:104A8000BB61BB697F2BF0D8FB695A1CFA61BA691C
:104A9000D2B21A70FB69FB607A68F9683869FFF76F
:104AA000DBFA7B6983F3118800BF2037BD4680BDE8
:104AB0005033002080B58CB000AFF860B9607A60E8
:104AC000EFF311834FF0200181F31188FB6125483A
:104AD000FFF7D0F9B861BB697B617B69FB62BB689A
:104AE000BB620BE0BB6ADAB2FB6A591CF96262F086
:104AF0007F02D2B21A70BB6ADB09BB62BB6A7F2B32
:104B0000F0D8FB6A5A1CFA62BA6AD2B21A70FB6A0F
:104B10007B617B697B627B683B620BE03B6ADAB25C
:104B20007B6A591C796262F07F02D2B21A703B6ACA
:104B3000DB093B623B6A7F2BF0D87B6A5A1C7A62A6
:104B40003A6AD2B21A707B6A7B61FA687969B8698D
:104B5000FFF782FAFB6983F3118800BF3037BD4647
:104B600080BD00BF5033002080B58CB000AF594BE2
:104B700001221A70EFF311834FF0200181F31188A5
:104B8000FB60544B5B780A2253491846FBF7E0FA66
:104B9000FB6883F31188FEF73BFD0A20FFF730FF27
:104BA000EFF311834FF0200181F31188BB604B4874
:104BB000FFF760F978607B683B603B68FB62454BC0
:104BC0005B68BB620BE0BB6ADAB2FB6A591CF96234
:104BD00062F07F02D2B21A70BB6ADB09BB62BB6AA9
:104BE0007F2BF0D8FB6A5A1CFA62BA6AD2B21A70EA
:104BF000FB6A3B603B687B62364B9B683B620BE029
:104C00003B6ADAB27B6A591C796262F07F02D2B2E7
:104C10001A703B6ADB093B623B6A7F2BF0D87B6AE8
:104C20005A1C7A623A6AD2B21A707B6A3B603B685D
:104C3000FB61284B1B69BB610BE0BB69DAB2FB6906
:104C4000591CF96162F07F02D2B21A70BB69DB09AC
:104C5000BB61BB697F2BF0D8FB695A1CFA61BA694A
:104C6000D2B21A70FB693B603B687B6100233B61F9
:104C70000BE03B69DAB27B69591C796162F07F0213
:104C8000D2B21A703B69DB093B613B697F2BF0D8DC
:104C90007B695A1C7A613A69D2B21A707B693B60AF
:104CA000182239687868FFF7D7F9BB6883F3118851
:104CB000084B5B6A002B02D0064B5B6A984700F0FA
:104CC000EBF900F0B1F900F083FC00BF3037BD46CE
:104CD00080BD00BF203300207059000850330020F1
:104CE00080B582B000AFEFF311834FF0200181F364
:104CF00011887B600B48FFF7BDF838600A4B1B78C2
:104D0000002B07D00B2239683868FFF7A5F9064B4E
:104D100000221A707B6883F3118800BF0837BD46F4
:104D200080BD00BF503300202033002080B58CB000
:104D300000AFEFF311834FF0200181F31188FB6086
:104D40004548FFF797F8B860BB687B607B68FB62FB
:104D5000424B5B68BB620BE0BB6ADAB2FB6A591C70
:104D6000F96262F07F02D2B21A70BB6ADB09BB62E1
:104D7000BB6A7F2BF0D8FB6A5A1CFA62BA6AD2B2BD
:104D80001A70FB6A7B607B687B62344B9B683B627A
:104D90000BE03B6ADAB27B6A591C796262F07F02EF
:104DA000D2B21A703B6ADB093B623B6A7F2BF0D8B8
:104DB0007B6A5A1C7A623A6AD2B21A707B6A7B604A
:104DC0007B68FB61254B1B69BB610BE0BB69DAB2F9
:104DD000FB69591CF96162F07F02D2B21A70BB699B
:104DE000DB09BB61BB697F2BF0D8FB695A1CFA61F8
:104DF000BA69D2B21A70FB697B607B687B61002361
:104E00003B610BE03B69DAB27B69591C796162F066
:104E10007F02D2B21A703B69DB093B613B697F2B91
:104E2000F0D87B695A1C7A613A69D2B21A707B69F0
:104E30007B6018227968B868FFF70EF9FB6883F386
:104E40001188064B5B6A002B02D0044B5B6A9847C3
:104E500000BF3037BD4680BD5033002020330020D6
:104E600080B592B000AF7860EFF311834FF020016E
:104E700081F311887B616A48FEF7FCFF38613B696A
:104E8000FB60FB687B647B681A68664B1B69D31AFE
:104E90003B640BE03B6CDAB27B6C591C796462F0CA
:104EA0007F02D2B21A703B6CDB093B643B6C7F2BF8
:104EB000F0D87B6C5A1C7A643A6CD2B21A707B6C54
:104EC000FB60FB68FB637B689B68BB630BE0BB6BB1
:104ED000DAB2FB6B591CF96362F07F02D2B21A702E
:104EE000BB6BDB09BB63BB6B7F2BF0D8FB6B5A1C26
:104EF000FA63BA6BD2B21A70FB6BFB607B685B68BB
:104F000020221946F868FEF769FFF8600922F9685F
:104F10003869FFF7A1F83B69FB60FB687B637B683E
:104F20001A68404B1B69D31A3B630BE03B6BDAB248
:104F30007B6B591C796362F07F02D2B21A703B6BB3
:104F4000DB093B633B6B7F2BF0D87B6B5A1C7A638E
:104F50003A6BD2B21A707B6BFB60FB68FB627B68BA
:104F6000DB68BB620BE0BB6ADAB2FB6A591CF96210
:104F700062F07F02D2B21A70BB6ADB09BB62BB6A05
:104F80007F2BF0D8FB6A5A1CFA62BA6AD2B21A7046
:104F9000FB6AFB60FB687B627B681B693B620BE022
:104FA0003B6ADAB27B6A591C796262F07F02D2B244
:104FB0001A703B6ADB093B623B6A7F2BF0D87B6A45
:104FC0005A1C7A623A6AD2B21A707B6AFB60FB683A
:104FD000FB610023BB610BE0BB69DAB2FB69591CC2
:104FE000F96162F07F02D2B21A70BB69DB09BB6162
:104FF000BB697F2BF0D8FB695A1CFA61BA69D2B23F
:105000001A70FB69FB601522F9683869FFF724F80C
:105010007B6983F3118800BF4837BD4680BD00BF60
:10502000503300202033002080B500AF074B1B6AAF
:10503000002B08D0054B1B6A5B68002B03D0034B89
:105040001B6A5B68984700BF80BD00BF203300200B
:1050500080B586B000AF7860EFF311834FF0200188
:1050600081F311887B610B48FEF704FF38618022D1
:1050700079683869FEF7B2FEF8600E22F96838697F
:10508000FEF7EAFF7B6983F3118800BF1837BD463E
:1050900080BD00BF5033002090B583B000AF154BEA
:1050A0001B6A002B1AD0134B1B6A1B68002B15D0F0
:1050B000104B1B6A1B689847C7E900013C68D7E999
:1050C00000014FF000024FF000030A0000231346D6
:1050D0001A4621460D20FFF7EDFC06E0064B1B6843
:1050E00019460C20FFF7AAFC00BF00BF0C37BD46D5
:1050F00090BD00BF20330020041000E080B586B0D2
:1051000000AFEFF311834FF0200181F31188FB60B2
:105110001948FEF7AFFEB860BB687B60174B1B6891
:10512000C3F308033B607B687B613B683B610BE03A
:105130003B69DAB27B69591C796162F07F02D2B2B5
:105140001A703B69DB093B613B697F2BF0D87B69B7
:105150005A1C7A613A69D2B21A707B697B6002226A
:105160007968B868FEF778FFFB6883F3118800BFA1
:105170001837BD4680BD00BF5033002004ED00E06D
:1051800080B582B000AFEFF311834FF0200181F3BF
:1051900011887B600748FEF76DFE3860032239688E
:1051A0003868FEF759FF7B6883F3118800BF083722
:1051B000BD4680BD5033002080B582B000AFEFF314
:1051C00011834FF0200181F311887B600748FEF7BF
:1051D00051FE3860122239683868FEF73DFF7B685F
:1051E00083F3118800BF0837BD4680BD50330020CF
:1051F00080B582B000AFEFF311834FF0200181F34F
:1052000011887B600748FEF735FE38601122396847
:105210003868FEF721FF7B6883F3118800BF0837E9
:10522000BD4680BD5033002080B588B000AF7860A7
:10523000EFF311834FF0200181F311887B6119484E
:10524000FEF718FE38613B69FB60174B1B697A68F3
:10525000D31A7B60FB68FB617B68BB610BE0BB69B9
:10526000DAB2FB69591CF96162F07F02D2B21A709E
:10527000BB69DB09BB61BB697F2BF0D8FB695A1C9A
:10528000FA61BA69D2B21A70FB69FB600822F96848
:105290003869FEF7E1FE7B6983F3118800BF203790
:1052A000BD4680BD503300202033002080B588B03B
:1052B00000AF7860EFF311834FF0200181F3118884
:1052C0007B611948FEF7D6FD38613B69FB60174BDF
:1052D0001B697A68D31A7B60FB68FB617B68BB61E2
:1052E0000BE0BB69DAB2FB69591CF96162F07F021D
:1052F000D2B21A70BB69DB09BB61BB697F2BF0D8E6
:10530000FB695A1CFA61BA69D2B21A70FB69FB6078
:105310000422F9683869FEF79FFE7B6983F31188E0
:1053200000BF2037BD4680BD503300202033002011
:1053300080B588B000AF7860EFF311834FF02001A3
:1053400081F311887B611948FEF794FD38613B6950
:10535000FB60174B1B697A68D31A7B60FB68FB61A3
:105360007B68BB610BE0BB69DAB2FB69591CF96170
:1053700062F07F02D2B21A70BB69DB09BB61BB6904
:105380007F2BF0D8FB695A1CFA61BA69D2B21A7045
:10539000FB69FB600622F9683869FEF75DFE7B69F0
:1053A00083F3118800BF2037BD4680BD50330020F5
:1053B0002033002080B58AB000AF78603960EFF309
:1053C00011834FF0200181F311887B612748FEF79C
:1053D00051FD38613B69FB60254B1B697A68D31A24
:1053E0007B60FB687B627B683B620BE03B6ADAB206
:1053F0007B6A591C796262F07F02D2B21A703B6AF2
:10540000DB093B623B6A7F2BF0D87B6A5A1C7A62CD
:105410003A6AD2B21A707B6AFB60FB68FB613B6838
:10542000BB610BE0BB69DAB2FB69591CF96162F040
:105430007F02D2B21A70BB69DB09BB61BB697F2BEB
:10544000F0D8FB695A1CFA61BA69D2B21A70FB69CA
:10545000FB600722F9683869FEF7FEFD7B6983F37C
:10546000118800BF2837BD4680BD00BF50330020E3
:105470002033002080B483B000AF7860044B1B69F8
:105480007A68D31A18460C37BD4680BC704700BFF7
:105490002033002080B58CB000AF0346FB713B4B3E
:1054A0001B68002B6DD0394B1B68FB620023BB626D
:1054B00008E0FB6A1B69FB62FB6A002B07D0BB6A32
:1054C0000133BB62FB79BA6A9A42F2D300E000BFB3
:1054D000FB6A002B55D0EFF311834FF0200181F3CD
:1054E00011887B612A48FEF7C5FC38613B69FB6087
:1054F000FB687B62FB793B620BE03B6ADAB27B6A5A
:10550000591C796262F07F02D2B21A703B6ADB09E1
:105510003B623B6A7F2BF0D87B6A5A1C7A623A6AFC
:10552000D2B21A707B6AFB60FB68FB61FB6A9B6806
:10553000BB610BE0BB69DAB2FB69591CF96162F02F
:105540007F02D2B21A70BB69DB09BB61BB697F2BDA
:10555000F0D8FB695A1CFA61BA69D2B21A70FB69B9
:10556000FB60FB6A1B6880221946F868FEF736FC70
:10557000F8601622F9683869FEF76EFD7B6983F3DF
:10558000118800BF3037BD4680BD00BF48330020C2
:105590005033002080B582B000AF0C4B1B68002B4D
:1055A0000FD00A4B1B687B607B68DB68002B02D046
:1055B0007B68DB6898477B681B697B607B68002B96
:1055C000F2D100BF0837BD4680BD00BF4833002080
:1055D00080B586B000AFEFF311834FF0200181F367
:1055E0001188FB601748FEF745FCB860BB687B601C
:1055F0007B687B61144B1B783B610BE03B69DAB243
:105600007B69591C796162F07F02D2B21A703B69E2
:10561000DB093B613B697F2BF0D87B695A1C7A61BF
:105620003A69D2B21A707B697B601B227968B868CC
:10563000FEF712FDFB6883F3118800BF1837BD46E3
:1056400080BD00BF503300204C3300200FB480B524
:1056500082B000AF07F114037B603B1D1A460021A6
:105660003869FEF783FF00BF0837BD46BDE88040BC
:1056700004B0704780B58AB000AF7860EFF3118353
:105680004FF0200181F311887B612748FEF7F2FB80
:105690003861802279683869FEF7A0FBF860FB6802
:1056A0007B6201233B620BE03B6ADAB27B6A591CE6
:1056B000796262F07F02D2B21A703B6ADB093B6208
:1056C0003B6A7F2BF0D87B6A5A1C7A623A6AD2B264
:1056D0001A707B6AFB60FB68FB610023BB610BE017
:1056E000BB69DAB2FB69591CF96162F07F02D2B280
:1056F0001A70BB69DB09BB61BB697F2BF0D8FB6902
:105700005A1CFA61BA69D2B21A70FB69FB601A229C
:10571000F9683869FEF7A0FC7B6983F3118800BF44
:105720002837BD4680BD00BF5033002080B500AF94
:10573000134B1B7E1946134A0B465B000B44DB00E0
:1057400013446C331A680E4B1B7E18460D490346F2
:105750005B000344DB000B4470331B689A420BD0A0
:10576000074B9B78002B07D1054B01229A70FEF75F
:105770008DFB034B00229A70014B1B78184680BDAD
:1057800020330020601E002070B500260C4D0D4C0B
:10579000641BA410A64209D100F040F800260A4D6F
:1057A0000A4C641BA410A64205D170BD55F8043BF9
:1057B00098470136EEE755F8043B98470136F2E783
:1057C0008C5900088C5900088C5900089059000821
:1057D00010B501390244904201D1002005E0037860
:1057E00011F8014FA34201D0181B10BD0130F2E7A0
:1057F0000A44914200F1FF3300D1704710B511F80F
:10580000014B914203F8014FF9D110BD0346024408
:10581000934200D1704703F8011BF9E7F8B500BFC8
:10582000F8BC08BC9E467047F8B500BFF8BC08BC81
:045830009E467047D9
:105834004C45445F426C75655F48616E646C65728B
:10584400000000004C45445F477265656E5F486127
:105854006E646C65720000005377697463685F540A
:1058640061736B00626C75650000000067726565AA
:105874006E00000002030405060708090A0B0C0D5C
:105884000E0F101049444C45000000004E3D467276
:10589400656552544F532048656C6C6F20576F7286
:1058A4006C64204170702C443D53544D3332463166
:1058B40030332C4F3D4672656552544F53000000FF
:1058C400492331353D5379735469636B00000000FB
:1058D40049444C450000000053595354454D564922
:1058E40045573A20436F756C64206E6F742072655F
:1058F400636F7264207461736B20696E666F726D7E
:105904006174696F6E2E204D6178696D756D206EBE
:10591400756D626572206F66207461736B7320729B
:105924006561636865642E005465726D696E616CAF
:1059340000000000525454005345474745520000AC
:105944005379735669657700000000000000000079
:105954000102030406070809000000000102030411
:105964008D310008FD30000853560301000000008B
:105974000000000000000000303132333435363787
:08598400383941424344454615
:04598C0035010008D9
:0459900011010008F9
:1059940000A24A04100000000100000004000000FE
:0C59A400AAAAAAAA00000000010000004E
:040000050800075197
:00000001FF
