:020000040800F2
:1000000000500020250600085D0400086304000875
:10001000690400086F04000875040008000000006F
:10002000000000000000000000000000011E0008A9
:100030007B040008000000005120000899200008FF
:100040006D0600086D0600086D0600086D060008C4
:100050006D0600086D0600086D0600086D060008B4
:100060006D0600086D0600086D0600086D060008A4
:100070006D0600086D0600086D0600086D06000894
:100080006D0600086D0600086D0600086D06000884
:100090006D0600086D0600086D0600086D06000874
:1000A0006D0600086D0600086D0600086D06000864
:1000B000890400086D0600086D0600086D0600083A
:1000C0006D0600086D0600086D0600086D06000844
:1000D0006D0600086D0600086D0600086D06000834
:1000E0006D0600086D0600086D060008000000009F
:1000F0000000000000000000000000000000000000
:0C01000000000000000000005FF808F1A3
:1001100010B5054C237833B9044B13B10448AFF341
:1001200000800123237010BD780000200000000033
:10013000782F000808B5034B1BB103490348AFF300
:10014000008008BD000000007C000020782F00081F
:1001500080B588B002AF00F08BFA00F045F800F0EF
:100160007FF807F10803019302230093184BC8227C
:100170001849194801F033FA78617B69012B0AD0DC
:100180004FF0BF0383F31188BFF36F8FBFF34F8F1F
:100190003B6100BFFEE73B1D0193022300930F4B21
:1001A000C8220F490F4801F01AFA78617B69012BC8
:1001B0000AD04FF0BF0383F31188BFF36F8FBFF3F3
:1001C0004F8FFB6000BFFEE701F040FBFEE700BF82
:1001D000902F0008A82F00088D020008B02F0008FB
:1001E000C82F0008B102000880B590B000AF07F139
:1001F000180328220021184602F0B2F93B1D002204
:100200001A605A609A60DA601A610223BB610123A6
:10021000BB621023FB6200237B6307F118031846BF
:1002200000F038FB0346002B01D000F062F80F23EA
:100230007B600023BB600023FB604FF480633B6165
:1002400000237B613B1D0021184600F0A5FD0346FD
:10025000002B01D000F04DF800BF4037BD4680BDF7
:1002600080B483B000AF084B9B69074A43F0040396
:100270009361054B9B6903F004037B607B6800BFBF
:100280000C37BD4680BC70470010024080B582B07C
:1002900000AF7860786802F0D9F9044B4FF08052D3
:1002A0001A60BFF34F8FBFF36F8FF3E704ED00E0E9
:1002B00080B582B000AF7860786802F0C7F9044B6F
:1002C0004FF080521A60BFF34F8FBFF36F8FF3E789
:1002D00004ED00E080B582B000AF78607B681B68F9
:1002E000B3F1804F01D100F0D9F900BF0837BD4606
:1002F00080BD80B400AF72B600BFFEE780B584B0A9
:1003000000AF164B9B69154A43F001039361134BF1
:100310009B6903F00103BB60BB68104BDB690F4AAC
:1003200043F08053D3610D4BDB6903F080537B6056
:100330007B680B4B5B68FB60FB6823F0E063FB6052
:10034000FB6843F00073FB60054AFB68536001F0F3
:10035000DDFD00BF1037BD4680BD00BF001002406C
:100360000000014080B58EB000AF78600023FB62D2
:100370000023BB62002387F83330344BDB69334AF8
:1003800043F00103D361314BDB6903F00103FB60F0
:10039000FB6807F1100207F114031146184600F03C
:1003A00061FE3B6AFB62FB6A002B03D100F046FE54
:1003B000786304E000F042FE03465B007B637B6BE6
:1003C000234AA2FB03239B0C013BBB62214B4FF052
:1003D00080421A601F4B40F2E732DA601D4ABB6A66
:1003E00053601C4B00221A611A4B00229A60194B71
:1003F00000229A61174800F083FE034687F83330E5
:1004000097F83330002B1BD1124800F0ADFE0346A5
:1004100087F8333097F83330002B11D11C2000F0CF
:100420002AFA7B680F2B08D8002279681C2000F07C
:1004300006FA094A7B68136002E0012387F833302B
:1004400097F8333018463837BD4680BD001002405B
:1004500083DE1B43940000200400002080B400AF22
:10046000FEE780B400AFFEE780B400AFFEE780B4E3
:1004700000AFFEE780B400AFFEE780B400AF00BF7E
:10048000BD4680BC7047000080B500AF024800F058
:100490008EFE00BF80BD00BF9400002080B483B0FA
:1004A00000AF0346FB710E4B1B680D4A43F080738F
:1004B00013600C4B1B680B4A43F00103136000BF31
:1004C0004FF060431B6803F00103002BF8D04FF09E
:1004D0006042FB79136000BF0C37BD4680BC70479B
:1004E000FCED00E0000E00E080B586B000AFF860E3
:1004F000B9607A6000237B610AE0AFF300800146B7
:10050000BB685A1CBA60CAB21A707B6901337B613E
:100510007A697B689A42F0DB7B6818461837BD46DB
:1005200080BD80B586B000AFF860B9607A60002306
:100530007B6109E0BB685A1CBA601B781846FFF75C
:10054000ADFF7B6901337B617A697B689A42F1DB9D
:100550007B6818461837BD4680BD80B483B000AFB5
:1005600078604FF0FF3318460C37BD4680BC7047AB
:1005700080B483B000AF786039603B684FF40052BC
:100580005A60002318460C37BD4680BC704780B4C3
:1005900083B000AF7860012318460C37BD4680BC9D
:1005A000704780B485B000AFF860B9607A6000230E
:1005B00018461437BD4680BC7047000080B400AFB9
:1005C000154B1B68144A43F001031360124B5A6821
:1005D0001149124B13404B600F4B1B680E4A23F01E
:1005E000847323F4803313600B4B1B680A4A23F493
:1005F00080231360084B5B68074A23F4FE035360B3
:10060000054B4FF41F029A60054B4FF000629A6051
:1006100000BFBD4680BC7047001002400000FFF8DC
:1006200000ED00E0002103E00B4B5B584350043128
:100630000A480B4B42189A42F6D30A4A02E00023BA
:1006400042F8043B084B9A42F9D3FFF7B7FF01F099
:1006500063FFFFF77DFD70476C300008000000204D
:10066000780000207800002018220020FEE700001B
:1006700080B500AF084B1B68074A43F010031360B6
:10068000032000F0D1F80F20FFF76CFEFFF736FED5
:100690000023184680BD00BF0020024080B400AF98
:1006A000054B1B781A46054B1B681344034A13601D
:1006B00000BFBD4680BC704708000020D400002069
:1006C00080B400AF024B1B681846BD4680BC704723
:1006D000D400002080B485B000AF78607B6803F060
:1006E0000703FB600C4BDB68BB60BA684FF6FF0387
:1006F0001340BB60FB681A02BB68134343F0BF633F
:1007000043F40033BB60044ABB68D36000BF1437B6
:10071000BD4680BC704700BF00ED00E080B400AF74
:10072000044BDB681B0A03F007031846BD4680BC78
:10073000704700BF00ED00E080B483B000AF034617
:10074000FB7197F90730002B0BDBFB7903F01F02DD
:10075000064997F907305B09012000FA02F241F8D7
:10076000232000BF0C37BD4680BC704700E100E08D
:1007700080B483B000AF03463960FB7197F907304E
:10078000002B0ADB3B68DAB20C4997F907301201FB
:10079000D2B20B4483F800230AE03B68DAB208497E
:1007A000FB7903F00F03043B1201D2B20B441A761B
:1007B00000BF0C37BD4680BC704700BF00E100E0C1
:1007C00000ED00E080B489B000AFF860B9607A60F5
:1007D000FB6803F00703FB61FB69C3F10703042B0C
:1007E00028BF0423BB61FB690433062B02D9FB69D4
:1007F000033B00E000237B614FF0FF32BB6902FA4C
:1008000003F3DA43BB681A407B699A404FF0FF312B
:100810007B6901FA03F3D9437B680B401343184605
:100820002437BD4680BC704780B582B000AF786089
:100830007868FFF74FFF00BF0837BD4680BD80B521
:1008400086B000AF0346B9607A60FB7300237B611A
:10085000FFF764FF78617A68B9687869FFF7B2FFDB
:10086000024697F90F3011461846FFF781FF00BF87
:100870001837BD4680BD80B582B000AF0346FB711E
:1008800097F907301846FFF757FF00BF0837BD46F6
:1008900080BD000080B586B000AF78607B68002B1B
:1008A00001D1012372E27B681B6803F00103002B76
:1008B00000F08780924B5B6803F00C03042B0CD094
:1008C0008F4B5B6803F00C03082B12D18C4B5B68D9
:1008D00003F48033B3F5803F0BD1894B1B6803F4DD
:1008E0000033002B6CD07B685B68002B68D1012340
:1008F0004CE27B685B68B3F5803F06D1804B1B6898
:100900007F4A43F4803313602EE07B685B68002BE2
:100910000CD17B4B1B687A4A23F480331360784BED
:100920001B68774A23F4802313601DE07B685B68B3
:10093000B3F5A02F0CD1724B1B68714A43F480238E
:1009400013606F4B1B686E4A43F4803313600BE0F7
:100950006B4B1B686A4A23F480331360684B1B6837
:10096000674A23F4802313607B685B68002B13D0F5
:10097000FFF7A6FE386108E0FFF7A2FE02463B69DA
:10098000D31A642B01D9032300E25D4B1B6803F4E7
:100990000033002BF0D014E0FFF792FE386108E03E
:1009A000FFF78EFE02463B69D31A642B01D903235D
:1009B000ECE1534B1B6803F40033002BF0D100E053
:1009C00000BF7B681B6803F00203002B63D04C4B15
:1009D0005B6803F00C03002B0BD0494B5B6803F002
:1009E0000C03082B1CD1464B5B6803F48033002BAF
:1009F00016D1434B1B6803F00203002B05D07B6824
:100A00001B69012B01D00123C0E13D4B1B6823F082
:100A1000F8027B685B69DB00394913430B603AE0FD
:100A20007B681B69002B20D0364B01221A60FFF730
:100A300047FE386108E0FFF743FE02463B69D31AE0
:100A4000022B01D90323A1E12D4B1B6803F0020304
:100A5000002BF0D02A4B1B6823F0F8027B685B69FF
:100A6000DB00274913430B6015E0264B00221A6078
:100A7000FFF726FE386108E0FFF722FE02463B69D9
:100A8000D31A022B01D9032380E11D4B1B6803F00D
:100A90000203002BF0D17B681B6803F00803002BD6
:100AA0003AD07B689B69002B19D0174B01221A6042
:100AB000FFF706FE386108E0FFF702FE02463B69D9
:100AC000D31A022B01D9032360E10D4B5B6A03F0BB
:100AD0000203002BF0D0012000F0F4FA1CE00A4BD6
:100AE00000221A60FFF7ECFD38610FE0FFF7E8FD28
:100AF00002463B69D31A022B08D9032346E100BF03
:100B0000001002400000424280044242924B5B6A65
:100B100003F00203002BE9D17B681B6803F0040398
:100B2000002B00F0A6800023FB758B4BDB6903F0E4
:100B30008053002B0DD1884BDB69874A43F08053EB
:100B4000D361854BDB6903F08053BB60BB68012335
:100B5000FB75824B1B6803F48073002B18D17F4B0D
:100B60001B687E4A43F480731360FFF7A9FD386168
:100B700008E0FFF7A5FD02463B69D31A642B01D9B3
:100B8000032303E1754B1B6803F48073002BF0D043
:100B90007B68DB68012B06D16F4B1B6A6E4A43F002
:100BA000010313622DE07B68DB68002B0CD16A4BDC
:100BB0001B6A694A23F001031362674B1B6A664A8A
:100BC00023F0040313621CE07B68DB68052B0CD167
:100BD000614B1B6A604A43F0040313625E4B1B6A5D
:100BE0005D4A43F0010313620BE05B4B1B6A5A4AF8
:100BF00023F001031362584B1B6A574A23F0040386
:100C000013627B68DB68002B15D0FFF759FD386154
:100C10000AE0FFF755FD02463B69D31A41F28832DC
:100C2000934201D90323B1E04B4B1B6A03F002034B
:100C3000002BEED014E0FFF743FD38610AE0FFF728
:100C40003FFD02463B69D31A41F28832934201D9F3
:100C500003239BE0404B1B6A03F00203002BEED101
:100C6000FB7D012B05D13C4BDB693B4A23F08053D4
:100C7000D3617B68DB69002B00F08780364B5B68B3
:100C800003F00C03082B61D07B68DB69022B46D193
:100C9000334B00221A60FFF713FD386108E0FFF7BD
:100CA0000FFD02463B69D31A022B01D903236DE0E5
:100CB000294B1B6803F00073002BF0D17B681B6A83
:100CC000B3F5803F08D1244B5B6823F400327B6886
:100CD0009B68214913434B601F4B5B6823F47412DC
:100CE0007B68196A7B685B6A0B431B4913434B6043
:100CF0001B4B01221A60FFF7E3FC386108E0FFF7A5
:100D0000DFFC02463B69D31A022B01D903233DE0E5
:100D1000114B1B6803F00073002BF0D035E0104B33
:100D200000221A60FFF7CCFC386108E0FFF7C8FC2E
:100D300002463B69D31A022B01D9032326E0064B56
:100D40001B6803F00073002BF0D11EE07B68DB69A9
:100D5000012B07D1012319E0001002400070004070
:100D6000600042420B4B5B68FB60FB6803F480321F
:100D70007B681B6A9A4206D1FB6803F470127B6899
:100D80005B6A9A4201D0012300E00023184618371D
:100D9000BD4680BD0010024080B584B000AF7860D1
:100DA00039607B68002B01D10123D0E06A4B1B68BE
:100DB00003F007033A689A4210D9674B1B6823F087
:100DC000070265493B6813430B60634B1B6803F0E4
:100DD00007033A689A4201D00123B8E07B681B6898
:100DE00003F00203002B20D07B681B6803F0040390
:100DF000002B05D0594B5B68584A43F4E0635360BD
:100E00007B681B6803F00803002B05D0534B5B681D
:100E1000524A43F460535360504B5B6823F0F00236
:100E20007B689B684D4913434B607B681B6803F0EC
:100E30000103002B40D07B685B68012B07D1474B37
:100E40001B6803F40033002B15D101237FE07B687E
:100E50005B68022B07D1414B1B6803F00073002B2A
:100E600009D1012373E03D4B1B6803F00203002B03
:100E700001D101236BE0394B5B6823F003027B68EF
:100E80005B68364913434B60FFF71AFCF8600AE0D1
:100E9000FFF716FC0246FB68D31A41F288329342F0
:100EA00001D9032353E02D4B5B6803F00C027B68F0
:100EB0005B689B009A42EBD1274B1B6803F007034A
:100EC0003A689A4210D2244B1B6823F00702224949
:100ED0003B6813430B60204B1B6803F007033A6821
:100EE0009A4201D0012332E07B681B6803F00403BF
:100EF000002B08D0194B5B6823F4E0627B68DB6849
:100F0000164913434B607B681B6803F00803002BF2
:100F100009D0124B5B6823F460527B681B69DB00CD
:100F20000E4913434B6000F021F802460B4B5B68FF
:100F30001B0903F00F030A49CB5C22FA03F3094AA9
:100F40001360094B1B681846FFF70CFA002318467C
:100F50001037BD4680BD00BF002002400010024097
:100F6000E82F0008000000200400002090B48AB0A0
:100F700000AF294B3C1D0FCB84E80F0040F201234A
:100F80003B800023FB610023BB6100237B620023C5
:100F90007B6100233B62214B5B68FB61FB6903F0D3
:100FA0000C03042B02D0082B03D02BE01C4B3B621C
:100FB0002BE0FB699B0C03F00F0328333B4413F831
:100FC000243C7B61FB6903F48033002B12D0134B6C
:100FD0005B685B0C03F0010328333B4413F8283CA7
:100FE000BB617B690E4A03FB02F2BB69B2FBF3F300
:100FF0007B6204E07B690B4A02FB03F37B627B6A42
:101000003B6202E0064B3B6200BF3B6A1846283752
:10101000BD4690BC704700BFD02F000800100240B2
:1010200000127A0000093D0080B400AF024B1B683B
:101030001846BD4680BC70470000002080B500AF58
:10104000FFF7F2FF0246054B5B681B0A03F007033C
:101050000349CB5C22FA03F3184680BD001002401E
:10106000F82F000880B483B000AF786039607B68E7
:101070000F221A60114B5B6803F003027B685A6011
:101080000E4B5B6803F0F0027B689A600B4B5B6869
:1010900003F4E0627B68DA60084B5B68DB0803F40A
:1010A000E0627B681A61064B1B6803F007023B682D
:1010B0001A6000BF0C37BD4680BC7047001002406C
:1010C0000020024080B485B000AF78600A4B1B68F6
:1010D0000A4AA2FB03235B0A7A6802FB03F3FB6064
:1010E00000BFFB685A1EFA60002BF9D100BF00BF99
:1010F0001437BD4680BC704700000020D34D6210FD
:1011000080B582B000AF78607B68002B01D10123ED
:101110001DE07B6893F83D30DBB2002B06D17B6885
:10112000002283F83C20786800F015F87B680222E2
:1011300083F83D207B681A687B68043319461046A3
:1011400000F062F97B68012283F83D2000231846F5
:101150000837BD4680BD80B483B000AF786000BF63
:101160000C37BD4680BC704780B485B000AF786056
:101170007B681B68DA687B681B6842F00102DA60F2
:101180007B681B689B6803F00703FB60FB68062B0A
:1011900007D07B681B681A687B681B6842F00102F5
:1011A0001A60002318461437BD4680BC704780B5CE
:1011B00082B000AF78607B681B681B6903F0020394
:1011C000022B22D17B681B68DB6803F00203022B31
:1011D0001BD17B681B686FF002021A617B680122D9
:1011E0001A777B681B689B6903F00303002B03D00D
:1011F000786800F0EDF805E0786800F0E0F87868CD
:1012000000F0EFF87B6800221A777B681B681B6987
:1012100003F00403042B22D17B681B68DB6803F016
:101220000403042B1BD17B681B686FF004021A6156
:101230007B6802221A777B681B689B6903F4407302
:10124000002B03D0786800F0C3F805E0786800F060
:10125000B6F8786800F0C5F87B6800221A777B68DA
:101260001B681B6903F00803082B22D17B681B68ED
:10127000DB6803F00803082B1BD17B681B686FF049
:1012800008021A617B6804221A777B681B68DB6995
:1012900003F00303002B03D0786800F099F805E011
:1012A000786800F08CF8786800F09BF87B68002282
:1012B0001A777B681B681B6903F01003102B22D17F
:1012C0007B681B68DB6803F01003102B1BD17B6865
:1012D0001B686FF010021A617B6808221A777B681E
:1012E0001B68DB6903F44073002B03D0786800F0BF
:1012F0006FF805E0786800F062F8786800F071F83F
:101300007B6800221A777B681B681B6903F0010366
:10131000012B0ED17B681B68DB6803F00103012BF6
:1013200007D17B681B686FF001021A617868FEF7CD
:10133000D1FF7B681B681B6903F08003802B0ED1F3
:101340007B681B68DB6803F08003802B07D17B6818
:101350001B686FF080021A61786800F0C0F87B6843
:101360001B681B6903F04003402B0ED17B681B6890
:10137000DB6803F04003402B07D17B681B686FF0EC
:1013800040021A61786800F035F87B681B681B69B9
:1013900003F02003202B0ED17B681B68DB6803F071
:1013A0002003202B07D17B681B686FF020021A6195
:1013B000786800F08BF800BF0837BD4680BD80B468
:1013C00083B000AF786000BF0C37BD4680BC70476B
:1013D00080B483B000AF786000BF0C37BD4680BCDE
:1013E000704780B483B000AF786000BF0C37BD4653
:1013F00080BC704780B483B000AF786000BF0C370A
:10140000BD4680BC7047000080B485B000AF7860F6
:1014100039607B681B68FB607B68294A93420BD06C
:101420007B68B3F1804F07D07B68264A934203D094
:101430007B68254A934208D1FB6823F07003FB6068
:101440003B685B68FA681343FB607B681C4A934205
:101450000BD07B68B3F1804F07D07B68194A934269
:1014600003D07B68184A934208D1FB6823F4407389
:10147000FB603B68DB68FA681343FB60FB6823F0A2
:1014800080023B685B691343FB607B68FA681A6003
:101490003B689A687B68DA623B681A687B689A6284
:1014A0007B68074A934203D13B681A697B681A63D9
:1014B0007B6801225A6100BF1437BD4680BC70476B
:1014C000002C0140000400400008004080B483B0BC
:1014D00000AF786000BF0C37BD4680BC704780B459
:1014E00083B000AF786000BF0C37BD4680BC70474A
:1014F00080B483B000AF78607B6803F108027B683A
:101500005A607B684FF0FF329A607B6803F10802F3
:101510007B68DA607B6803F108027B681A617B688C
:1015200000221A6000BF0C37BD4680BC704780B4F3
:1015300083B000AF78607B6800221A6100BF0C376F
:10154000BD4680BC704780B485B000AF786039601C
:101550007B685B68FB603B68FA685A60FB689A6866
:101560003B689A60FB689B683A685A60FB683A6817
:101570009A603B687A681A617B681B685A1C7B68B2
:101580001A6000BF1437BD4680BC704780B485B078
:1015900000AF78607B681B69FB607B685B687A687A
:1015A00092689A607B689B687A6852685A60FB68A8
:1015B0005B687A689A4203D17B689A68FB685A60D4
:1015C0007B6800221A61FB681B685A1EFB681A6060
:1015D000FB681B6818461437BD4680BC704780B551
:1015E0008CB004AFF860B9603B601346FB80FB88A9
:1015F0009B00184600F094FD78617B69002B0ED0AB
:10160000582000F08DFDF861FB69002B03D0FB69C9
:101610007A691A6305E0786900F062FE01E0002350
:10162000FB61FB69002B13D0FA8800230393FB694D
:101630000293FB6A0193BB6A00933B68B968F86840
:1016400000F00EF8F86900F0A1F80123BB6102E098
:101650004FF0FF33BB61BB6918462037BD4680BDE4
:1016600080B588B000AFF860B9607A603B603B6BD2
:10167000186B7B689B001A46A52100F071FF3B6B3D
:101680001A6B7B6803F18043013B9B001344BB61F1
:10169000BB6923F00703BB61BB6903F00703002BA1
:1016A0000AD04FF0BF0383F31188BFF36F8FBFF3EE
:1016B0004F8F7B6100BFFEE7BB68002B1FD000236C
:1016C000FB6112E0BA68FB69134419783A6BFB6955
:1016D000134434330A461A70BA68FB6913441B7802
:1016E000002B06D0FB690133FB61FB69092BE9D9AB
:1016F00000E000BF3B6B002283F83D2003E03B6B22
:10170000002283F83420BB6A042B01D90423BB6276
:101710003B6BBA6ADA623B6BBA6A9A643B6B002233
:10172000DA643B6B04331846FFF701FF3B6B183359
:101730001846FFF7FCFE3B6B3A6B1A61BB6AC3F1BC
:1017400005023B6B9A613B6B3A6B5A623B6B5033C1
:1017500004220021184600F003FF3B6B54330122A2
:101760000021184600F0FCFE3A68F968B86900F0FC
:10177000EFFA02463B6B1A60FB6A002B02D0FB6A51
:101780003A6B1A6000BF2037BD4680BD80B582B07D
:1017900000AF786000F000FC264B1B680133254A3F
:1017A0001360254B1B68002B09D1234A7B6813600B
:1017B000204B1B68012B10D100F032FA0DE01F4BBB
:1017C0001B68002B09D11C4B1B68DA6A7B68DB6A3B
:1017D0009A4202D8184A7B681360194B1B68013380
:1017E000174A1360164B1A687B681A647B68DB6AB9
:1017F00001229A40134B1B681343124A13607B6803
:10180000DA6A13469B0013449B000F4A1A447B6814
:10181000043319461046FFF796FE00F0EDFB074B28
:101820001B68002B01D0044B1B6800BF0837BD4666
:1018300080BD00BFB0010020D8000020BC01002006
:10184000CC010020B8010020DC00002080B586B06B
:1018500002AF1D4B019300230093002378221B4904
:101860001B48FFF7BCFEF860FB68012B16D14FF058
:10187000BF0383F31188BFF36F8FBFF34F8FBB603C
:1018800000BF144B4FF0FF321A60134B01221A6055
:10189000124B00221A6000F0D9FA0EE0FB68B3F197
:1018A000FF3F0AD14FF0BF0383F31188BFF36F8F5F
:1018B000BFF34F8F7B6000BFFEE7094B1B6800BF83
:1018C0001037BD4680BD00BFD4010020E02F0008C6
:1018D000FD1B0008D0010020BC010020B401002045
:1018E0000C00002080B400AF044B1B680133034A96
:1018F000136000BFBD4680BC704700BFD801002008
:1019000080B584B000AF0023FB6000237B603B4BBD
:101910001B68002B0AD14FF0BF0383F31188BFF37C
:101920006F8FBFF34F8F3B6000BFFEE700F034FBCB
:10193000324B1B68013B314A1360304B1B68002B54
:1019400055D12F4B1B68002B51D02EE02D4BDB685F
:10195000DB68FB60FB6818331846FFF717FEFB686F
:1019600004331846FFF712FEFB68DB6A01229A4037
:10197000254B1B681343244A1360FB68DA6A13463D
:101980009B0013449B00214A1A44FB680433194608
:101990001046FFF7D8FDFB68DA6A1D4B1B68DB6A4F
:1019A0009A4202D31B4B01221A60164B1B68002B74
:1019B000CCD1FB68002B01D000F0B0F9164B1B68AE
:1019C000BB60BB68002B10D000F028F80346002B4A
:1019D00002D0104B01221A60BB68013BBB60BB68A0
:1019E000002BF1D10C4B00221A600A4B1B6800F04F
:1019F00003FB7B6818461037BD4680BDD801002028
:101A0000B001002070010020B8010020DC0000209F
:101A1000D8000020C4010020C001002080B586B09D
:101A200000AF00237B613F4B1B68002B6FD13E4B07
:101A30001B6801333B613C4A3B6913603B69002BE7
:101A400020D13A4B1B681B68002B0AD04FF0BF0314
:101A500083F31188BFF36F8FBFF34F8F3B6000BFDD
:101A6000FEE7324B1B68FB60314B1B682F4A13604B
:101A70002F4AFB6813602F4B1B6801332D4A1360FC
:101A800000F04CF92C4B1B683A699A4244D3274B1F
:101A90001B681B68002B04D1274B4FF0FF321A60E4
:101AA0003AE0224B1B68DB68DB68BB60BB685B68A5
:101AB0007B603A697B689A4203D21F4A7B68136055
:101AC0002AE0BB6804331846FFF760FDBB689B6AD9
:101AD000002B04D0BB6818331846FFF757FDBB68CE
:101AE000DB6A01229A40154B1B681343134A1360AB
:101AF000BB68DA6A13469B0013449B00104A1A44E1
:101B0000BB68043319461046FFF71DFDBFE70D4BB8
:101B10001B6801330B4A13607B6918461837BD46B2
:101B200080BD00BFD8010020B40100206801002062
:101B30006C010020C8010020D0010020B801002065
:101B4000DC000020C001002080B487B000AF264B2D
:101B50001B68002B03D0254B01221A603FE0234B6A
:101B600000221A60224B1B68FB60FB68B3FA83F308
:101B7000FB72FB7AC3F11F037B611E497A6913462E
:101B80009B0013449B000B441B68002B0AD14FF0B1
:101B9000BF0383F31188BFF36F8FBFF34F8F7B6059
:101BA00000BFFEE77A6913469B0013449B00114A6D
:101BB00013443B613B695B685A683B695A603B6907
:101BC0005A683B6908339A4204D13B695B685A689A
:101BD0003B695A603B695B68DB68074A136000BF7A
:101BE0001C37BD4680BC7047D8010020C4010020CE
:101BF000B8010020DC000020D800002080B582B0B1
:101C000000AF786000F04CF8044B4FF080521A603F
:101C1000BFF34F8FBFF36F8FF4E700BF04ED00E019
:101C200080B582B000AF00237B600CE07A68134679
:101C30009B0013449B00124A13441846FFF758FCBC
:101C40007B6801337B607B68042BEFD90D48FFF77D
:101C50004FFC0D48FFF74CFC0C48FFF749FC0C48C3
:101C6000FFF746FC0B48FFF743FC0B4B054A1A6095
:101C70000A4B054A1A6000BF0837BD4680BD00BF49
:101C8000DC000020400100205401002070010020F1
:101C9000840100209C010020680100206C010020CC
:101CA00080B582B000AF19E000F076F9104BDB6828
:101CB000DB687B607B6804331846FFF767FC0D4BDD
:101CC0001B68013B0B4A13600B4B1B68013B0A4A24
:101CD000136000F091F9786800F010F8064B1B686B
:101CE000002BE1D100BF00BF0837BD4680BD00BF5B
:101CF00084010020B00100209801002080B582B04E
:101D000000AF78607B681B6B184600F0E9FA7868D2
:101D100000F0E6FA00BF0837BD4680BD80B400AFD2
:101D2000094B1B681B68002B04D1084B4FF0FF3296
:101D30001A6005E0044B1B68DB681B68034A1360EC
:101D400000BFBD4680BC704768010020D001002064
:101D500080B485B000AFF860B9607A60FB68043B7E
:101D6000FB60FB684FF080721A60FB68043BFB600D
:101D7000BB6823F00102FB681A60FB68043BFB6050
:101D8000084AFB681A60FB68143BFB607A68FB68D2
:101D90001A60FB68203BFB60FB6818461437BD46A1
:101DA00080BC7047A91D000880B485B000AF002337
:101DB0007B60124B1B68B3F1FF3F0AD04FF0BF03AB
:101DC00083F31188BFF36F8FBFF34F8FFB6000BFAA
:101DD000FEE74FF0BF0383F31188BFF36F8FBFF3AC
:101DE0004F8FBB6000BF00BF7B68002BFCD000BFE3
:101DF00000BF1437BD4680BC704700BF10000020F4
:101E0000074B19680868B0E8F00F80F30988BFF342
:101E10006F8F4FF0000080F311884EF00D0E704769
:101E2000D800002000BF00BF06480068006880F3AB
:101E3000088862B661B6BFF34F8FBFF36F8F00DFC4
:101E400000BF000008ED00E000BF00BF80B584B017
:101E500000AF294BFB60FB681B78DBB2BB60FB6803
:101E6000FF221A70FB681B78DBB2FB71FB79DBB2D7
:101E700023F04003DAB2214B1A70214B07221A607B
:101E800009E01F4B1B68013B1D4A1360FB79DBB265
:101E90005B00DBB2FB71FB79DBB203F08003802BCC
:101EA000EFD0174B1B681B02154A1360144B1B68BD
:101EB00003F4E063124A1360BB68DAB2FB681A707D
:101EC000104B1B680F4A43F47F0313600D4B1B68D4
:101ED0000C4A43F07F43136000F000F90A4B0022E4
:101EE0001A60FFF7A1FFFFF72FFEFFF75DFF00234A
:101EF00018461037BD4680BD00E400E0DC0100203C
:101F0000E001002020ED00E01000002080B485B04A
:101F100000AF1E4BFB60FB681B78DBB2BB60FB684D
:101F2000FF221A70FB681B78DBB2FB71FB79DBB216
:101F300023F04003DAB2164B1A70164B07221A60D0
:101F400009E0144B1B68013B124A1360FB79DBB2BA
:101F50005B00DBB2FB71FB79DBB203F08003802B0B
:101F6000EFD00C4B1B681B020A4A1360094B1B681D
:101F700003F4E063074A1360BB68DAB2FB681A70C7
:101F800000BF1437BD4680BC704700BF00E400E0CE
:101F9000DC010020E001002080B483B000AF4FF0EE
:101FA000BF0383F31188BFF36F8FBFF34F8F7B6045
:101FB00000BF0F4B1B6801330D4A13600C4B1B68AD
:101FC000012B0FD10B4B1B68DBB2002B0AD04FF05B
:101FD000BF0383F31188BFF36F8FBFF34F8F3B6055
:101FE00000BFFEE700BF0C37BD4680BC704700BF96
:101FF0001000002004ED00E080B483B000AF114B6E
:102000001B68002B0AD14FF0BF0383F31188BFF385
:102010006F8FBFF34F8F7B6000BFFEE7094B1B68DC
:10202000013B084A1360074B1B68002B05D10023B6
:102030003B603B6883F3118800BF00BF0C37BD468F
:1020400080BC70471000002000000000000000006D
:10205000EFF30980BFF36F8F0D4B1A6820E9F00F83
:1020600010602DE908404FF0BF0080F31188FFF7A2
:102070006BFD4FF0000080F31188BDE8084019683F
:102080000868B0E8F00F80F30988BFF36F8F7047DE
:10209000D800002000BF00BF80B582B000AF4FF075
:1020A000BF0383F31188BFF36F8FBFF34F8F7B6044
:1020B00000BFFFF7B3FC0346002B03D0064B4FF0E5
:1020C00080521A6000233B603B6883F3118800BF95
:1020D00000BF0837BD4680BD04ED00E080B400AF0E
:1020E0000A4B00221A600A4B00221A60094B1B6837
:1020F000094AA2FB03239B09084A013B1360034BD7
:1021000007221A6000BFBD4680BC704710E000E0A7
:1021100018E000E000000020D34D621014E000E061
:1021200080B58AB000AF78600023FB61FFF7DAFB6F
:10213000654B1B68002B01D100F034F9634B1A6822
:102140007B681340002B40F0A7807B68002B2DD0CC
:1021500008227B6813447A689A4227D208227B6857
:1021600013447B607B6803F00703002B21D07B685E
:1021700023F0070308337A689A4214D27B6823F06D
:10218000070308337B607B6803F00703002B10D044
:102190004FF0BF0383F31188BFF36F8FBFF34F8FEF
:1021A0007B6100BFFEE700237B6002E000237B60D1
:1021B00000E000BF7B68002B6ED0454B1B687A683F
:1021C0009A4269D8434B3B62424B1B687B6204E0F6
:1021D0007B6A3B627B6A1B687B627B6A5B687A68AE
:1021E0009A4203D97B6A1B68002BF1D1364B1B68DE
:1021F0007A6A9A4250D03B6A1B6808221344FB61FA
:102200007B6A1A683B6A1A607B6A5A687B68D21AD2
:1022100008235B009A421FD97A6A7B681344BB612A
:10222000BB6903F00703002B0AD04FF0BF0383F311
:102230001188BFF36F8FBFF34F8F3B6100BFFEE785
:102240007B6A5A687B68D21ABB695A607B6A7A6873
:102250005A60B86900F008F91D4B1A687B6A5B6820
:10226000D31A1B4A13601A4B1A681B4B1B689A42FD
:1022700003D2174B1B68184A13607B6A5A68134BCA
:102280001B681A437B6A5A607B6A00221A60134BF0
:102290001B680133114A1360FFF732FBFB6903F03F
:1022A0000703002B0AD04FF0BF0383F31188BFF35D
:1022B0006F8FBFF34F8FFB6000BFFEE7FB691846CF
:1022C0002837BD4680BD00BFEC2100200022002041
:1022D000F0210020E4210020F4210020F82100203A
:1022E00080B586B000AF78607B687B617B68002B2F
:1022F0004DD008235B427A6913447B617B693B6163
:102300003B695A68244B1B681340002B0AD14FF0DD
:10231000BF0383F31188BFF36F8FBFF34F8FFB6051
:1023200000BFFEE73B691B68002B0AD04FF0BF03DC
:1023300083F31188BFF36F8FBFF34F8FBB6000BF74
:10234000FEE73B695A68144B1B681340002B1ED0F4
:102350003B691B68002B1AD13B695A680E4B1B68FE
:10236000DB431A403B695A60FFF7BCFA3B695A6885
:102370000A4B1B681344094A1360386900F074F86B
:10238000074B1B680133064A1360FFF7B9FA00BF19
:102390001837BD4680BD00BF00220020F02100207C
:1023A000FC21002080B485B000AF4FF40053BB6027
:1023B000274BFB60FB6803F00703002B0CD0FB6886
:1023C0000733FB60FB6823F00703FB60BA68FB6818
:1023D000D31A1F4A1344BB60FB687B601D4A7B68AD
:1023E00013601C4B00225A607B68BA681344FB6080
:1023F0000822FB689B1AFB60FB6823F00703FB6065
:10240000FB68154A1360144B1B6800225A60124B7C
:102410001B6800221A607B683B603B68FA68D21A2E
:102420003B685A600C4B1A683B681A603B685B68F3
:102430000A4A13603B685B68094A1360094B4FF016
:1024400000421A6000BF1437BD4680BC704700BF11
:10245000E4010020E4210020EC210020F4210020F0
:10246000F02100200022002080B485B000AF786009
:10247000274BFB6002E0FB681B68FB60FB681B6886
:102480007A689A42F7D8FB68BB60FB685B68BA68F9
:1024900013447A689A4208D1FB685A687B685B6883
:1024A0001A44FB685A60FB687B607B68BB607B6892
:1024B0005B68BA681A44FB681B689A4218D1FB68CB
:1024C0001A68144B1B689A420DD07B685A68FB68E7
:1024D0001B685B681A447B685A60FB681B681A6853
:1024E0007B681A6008E00B4B1A687B681A6003E08F
:1024F000FB681A687B681A60FA687B689A4202D0A7
:10250000FB687A681A6000BF1437BD4680BC70470C
:10251000E4210020EC21002070B500260C4D0D4C6C
:10252000641BA410A64209D100F026FD00260A4D26
:102530000A4C641BA410A64205D170BD55F8043B9B
:1025400098470136EEE755F8043B98470136F2E725
:102550006430000864300008643000086830000807
:1025600003460244934200D1704703F8011BF9E788
:1025700070B50E46054618B183690BB900F044FAF0
:10258000AB69AC6813B9284600F03EFA2C4B9C426C
:1025900020D16C68636EDB0705D4A389980502D44B
:1025A000A06D00F0CFFAA38919071DD52369DBB10F
:1025B000013EA36816F8011F013BA36039BB002B45
:1025C00038DA22460A21284600F048F8013011D0B6
:1025D0000A2511E01B4B9C4201D1AC68DAE71A4B8B
:1025E0009C4208BFEC68D5E72146284600F088F8F1
:1025F0000028DDD04FF0FF35636EDA0705D4A389DC
:102600009B0502D4A06D00F09EFA284670BD002BF9
:1026100004DAA2699A4206DC0A2904D023685A1C0B
:1026200022601970C5E72246284600F017F80130ED
:10263000BFD1DFE70A2523685A1C22601D70DBE743
:10264000243000084430000804300008024B0146E2
:102650001868FFF78DBF00BF14000020F8B50E46C4
:102660001446054618B183690BB900F0CDF9214B2A
:102670009C422BD16C68A369A360A3891A072FD54C
:1026800023696BB323692068F6B2C01A63693746C1
:10269000834204DC2146284600F022F930BBA368BF
:1026A0000130013BA36023685A1C22601E706369DD
:1026B000834204D0A389DB0706D50A2E04D1214624
:1026C000284600F00DF988B93846F8BD0A4B9C42FF
:1026D00001D1AC68CFE7094B9C4208BFEC68CAE760
:1026E0002146284600F00CF80028CBD04FF0FF37E9
:1026F000EAE700BF24300008443000080430000836
:10270000324B70B51D6806460C4625B1AB6913B94E
:10271000284600F079F92E4B9C420FD16C68A389B2
:10272000B4F90C2019072CD4DD0611D40923336029
:1027300042F040034FF0FF30A3813EE0254B9C4226
:1027400001D1AC68EBE7244B9C4208BFEC68E6E79C
:10275000580712D5616B41B104F14403994202D08C
:10276000304600F057FA00236363A38923F0240363
:10277000A3810023636023692360A38943F00803D6
:10278000A38123694BB9A38903F42073B3F5007FB8
:1027900003D02146304600F0FDF9A089B4F90C20A1
:1027A00010F001030AD00023A36063695B42A361B8
:1027B000236943B910F08000BAD170BD810758BFBA
:1027C0006369A360F4E70020F7E700BF140000206E
:1027D0002430000844300008043000088A89F8B525
:1027E000054610070C4657D44B68002B04DC0B6CD5
:1027F000002B01DC0020F8BDE66A002EFAD0002391
:1028000012F480522F682B6032D0606DA3895A0772
:1028100005D56368C01A636B0BB1236CC01A002323
:102820000246E66A2846216AB047431CA38906D1BE
:1028300029681D292CD8294ACA40D60728D5002244
:1028400062602269D904226004D5421C01D12B6840
:1028500003B96065616B2F600029CBD004F144039C
:10286000994202D0284600F0D5F900206063C2E703
:10287000216A01232846B047411CC7D12B68002B91
:10288000C4D01D2B01D0162B01D12F60B2E7A38934
:1028900043F04003A381AEE70F69002FAAD093074E
:1028A00018BF00230E6808BF4B69F61B0F608B60D2
:1028B000002E9FDD33463A462846216AD4F828C0C8
:1028C000E047002806DCA3894FF0FF3043F04003C7
:1028D000A38190E70744361AEAE700BF01004020D1
:1028E00038B50B6905460C4613B90025284638BD96
:1028F00018B183690BB900F087F8144B9C421BD1C7
:102900006C68B4F90C30002BEFD0626ED00704D4A1
:10291000990502D4A06D00F015F928462146FFF76D
:102920005DFF636E0546DA07E0D4A3899B05DDD41D
:10293000A06D00F008F9D9E7054B9C4201D1AC68C5
:10294000DFE7044B9C4208BFEC68DAE7243000085C
:102950004430000804300008002310B50446C0E9E4
:102960000033C0E90433836081814366C28183619F
:10297000194608225C30FFF7F3FD054B24626362C1
:10298000044BA362044BE362044B236310BD00BFFE
:10299000ED2D00080F2E0008472E00086B2E0008B2
:1029A000014900F0AFB800BFE1280008682270B507
:1029B0004D1E55430E4605F1740100F093F904468F
:1029C00040B10021C0E900160C30A06005F168029A
:1029D000FFF7C6FD204670BD014800F0B3B800BF48
:1029E00005220020014800F0AEB800BF05220020FB
:1029F000014800F0A7B800BF06220020014800F0FF
:102A0000A2B800BF0622002010B50446FFF7F0FF71
:102A1000A3691BB1BDE81040FFF7F0BFC4E9123352
:102A20002365134B134A1B68A262A34208BF01230C
:102A3000204608BFA36100F01FF86060204600F048
:102A40001BF8A060204600F017F800220421E06087
:102A50006068FFF781FF01220921A068FFF77CFF72
:102A600002221221E068FFF777FF0123A361D1E77B
:102A700000300008A1290008F8B50746FFF7ACFFB1
:102A80001E4B1E68B36913B93046FFF7BDFF4836C9
:102A9000D6E90134013B03D533680BB33668F7E759
:102AA000B4F90C50D5B9164B04F15800E3606566D3
:102AB00000F047F8FFF796FF08222946C4E90155C0
:102AC000C4E904552560A56104F15C00FFF748FDE9
:102AD000C4E90D55C4E912552046F8BD6834D9E75C
:102AE00004213846FFF762FF044630600028D5D144
:102AF000FFF778FF0C233B60EEE700BF00300008D3
:102B00000100FFFF2DE9F84306468846002700F143
:102B10004804D4E90195B9F1010905D52468002CD0
:102B2000F7D13846BDE8F883AB89012B07D9B5F951
:102B30000E30013303D029463046C047074368357D
:102B4000E9E770477047704770B50E46B1F90E104F
:102B5000144600291D4696B008DA0022B6F90C305A
:102B60002A601A0610D44FF480630EE06A4600F023
:102B7000A3F90028F1DB019A02F47042A2F5005398
:102B80005A425A412A60EEE740230020236016B0E3
:102B900070BD00008B8973B59D0706460C4607D5AE
:102BA00004F14703236023610123636102B070BD18
:102BB0006A4601ABFFF7C8FF00990546304600F0B2
:102BC00091F848B9B4F90C309A05EFD423F0030317
:102BD00043F00203A381E3E70D4BB362A3892060B6
:102BE00043F08003A381009B20616361019B5BB183
:102BF0003046B4F90E1000F071F928B1A38923F022
:102C0000030343F00103A381A0890543A581CDE718
:102C1000A129000838B50546002940D051F8043CE8
:102C20000C1F002BB8BFE41800F07AF91C4A136897
:102C300033B9636014602846BDE8384000F076B9C7
:102C4000A34208D9206821188B4201BF19685B682C
:102C500009182160EDE71A465B680BB1A342FAD967
:102C600011685018A0420BD12068014450188342CB
:102C70001160E0D118685B68014411605360DAE7C5
:102C800002D90C232B60D6E7206821188B4201BFA4
:102C900019685B680918216063605460CBE738BD30
:102CA0000822002070B50E4E0C463168054611B959
:102CB00000F08CF830602146284600F087F8431C6D
:102CC0000AD0C41C24F00304A04207D0211A2846CD
:102CD00000F07CF8013001D14FF0FF34204670BD88
:102CE0000C2200202DE9F041CD1C25F0030508350C
:102CF0000C2D38BF0C25002D074601DBA94205D954
:102D00000C2300263B603046BDE8F0812E4E00F0DB
:102D100007F933681C4634BB29463846FFF7C2FF23
:102D2000431C04464DD134682646002E40D123680A
:102D30003146384604EB030800F048F880453AD1A4
:102D4000216803356D1A25F0030508350C2D38BFB1
:102D50000C2538462946FFF7A5FF01302BD0236804
:102D60002B4423600EE02268521B1ED40B2A16D976
:102D70006119A342256018BF5960636808BF3160BC
:102D800062514B60384604F10B0600F0CFF826F094
:102D90000706231DF21AB6D09B1BA350B3E7626847
:102DA000A3420CBF32605A60ECE723466468B2E786
:102DB00034467668B9E70C2338463B6000F0B6F835
:102DC000A1E72560DEE700BF0822002038B5002318
:102DD000054D044608462B6000F0C0F8431C02D1A4
:102DE0002B6803B1236038BD1022002010B50C46BB
:102DF000B1F90E1000F0A0F80028ABBF636DA389F5
:102E00001B1823F48053ACBF6365A38110BD2DE96B
:102E1000F0411F468B890546DB050C46164605D555
:102E200002230022B1F90E1000F068F8A38932469F
:102E300023F48053A38128463B46B4F90E10BDE825
:102E4000F04100F017B810B50C46B1F90E1000F0C3
:102E500055F8431CA38915BF606523F4805343F4E0
:102E60008053A38118BFA38110BDB1F90E1000F0EB
:102E700013B8000038B50446084611460022054D37
:102E80002A601A46FDF74DFB431C02D12B6803B1A3
:102E9000236038BD1022002038B50023054D0446BC
:102EA00008462B60FDF759FB431C02D12B6803B188
:102EB000236038BD1022002038B50023064D04469B
:102EC000084611462B60FDF753FB431C02D12B68CB
:102ED00003B1236038BD00BF1022002038B50023A5
:102EE000054D044608462B60FDF751FB431C02D1FB
:102EF0002B6803B1236038BD1022002038B504468A
:102F0000084611460022054D2A601A46FDF749FB86
:102F1000431C02D12B6803B1236038BD102200206E
:102F20000148FFF70FBE00BF042200200148FFF751
:102F30000ABE00BF0422002038B5044608461146E8
:102F40000022054D2A601A46FDF7CEFA431C02D135
:102F50002B6803B1236038BD10220020044A0346C9
:102F6000116809B903491160106803441360704780
:102F70001422002018220020F8B500BFF8BC08BCBD
:102F80009E467047F8B500BFF8BC08BC9E46704727
:102F900048656C6C6F20576F726C642066726F6D41
:102FA000205461736B2D31005461736B2D3100001F
:102FB00048656C6C6F20576F726C642066726F6D21
:102FC000205461736B2D32005461736B2D320000FD
:102FD00002030405060708090A0B0C0D0E0F10105A
:102FE00049444C45000000000000000000000000C3
:102FF000010203040607080900000000010203049F
:103000001800002000000000000000000000000088
:1030100000000000000000000000000000000000B0
:1030200000000000000000000000000000000000A0
:103030000000000000000000000000000000000090
:103040000000000000000000000000000000000080
:103050000000000000000000000000000000000070
:04306000000000006C
:04306400350100082A
:04306800110100084A
:10306C000024F40010000000010000000400000027
:10307C00AAAAAAAA18000020000000002430000808
:10308C00443000080430000800000000000000007C
:10309C000000000000000000000000000000000024
:1030AC000000000000000000000000000000000014
:1030BC000000000000000000000000000000000004
:1030CC0000000000000000000000000000000000F4
:0830DC000000000000000000EC
:0400000508000625C4
:00000001FF
